:020000040000FA
:0400000007EF00F016
:100008003382F0ED07F0D4EF07F08FEC08F0AEEC98
:1000180008F0C80E00D0E82EFDD7C6EF01F01BC0CF
:1000280028F01C50F7EC04F0010E3CEC07F00DEF43
:1000380000F01BC028F01C50F7EC04F0020E3CEC5A
:1000480007F00DEF00F003000DEF00F00F50D8B4EB
:1000580030EF00F032EF00F050EF00F00AEC03F060
:1000680032501C18D8A43BEF00F03DEF00F04AEFE7
:1000780000F031501B18D8A444EF00F046EF00F010
:100088004AEF00F0010E0E6E4EEF00F0000E0E6EFD
:10009800000E0D6E000E0F6E1BC028F01C50F7EC02
:1000A80004F0000E3CEC07F00E04D8A45EEF00F05C
:1000B80060EF00F06CEF00F00D50D8A466EF00F090
:1000C80068EF00F06CEF00F00A0E106E0DEF00F014
:1000D8001C500318D8A473EF00F075EF00F003EF7D
:1000E80002F01B500218D8A47CEF00F07EEF00F05D
:1000F80003EF02F0020E106E0DEF00F031C028F091
:100108003250F7EC04F0010E3CEC07F00DEF00F074
:1001180031C028F03250F7EC04F0020E3CEC07F046
:100128000DEF00F017C028F01850F7EC04F0010E9E
:100138003CEC07F00DEF00F017C028F01850F7EC72
:1001480004F0020E3CEC07F00DEF00F014C028F0AC
:100158001550F7EC04F0010E3CEC07F00DEF00F041
:1001680014C028F01550F7EC04F0020E3CEC07F030
:100178000DEF00F00F50D8B4C4EF00F0C6EF00F058
:10018800F3EF00F00AEC03F008501A18D8B4CFEFD8
:1001980000F0D1EF00F0F1EF00F0010E286E0650EC
:1001A8001DEC08F02E6E590E2E64DDEF00F0DFEF27
:1001B80000F0E9EF00F0010E286E07501DEC08F082
:1001C800076E000E066EEFEF00F0010E286E065067
:1001D8001DEC08F0066E1AC008F0000E0F6EA09213
:1001E8009D90F298F096F09882900750D8A4FFEF6F
:1001F80000F001EF01F00FEF01F00604D8A407EFBB
:1002080001F009EF01F00FEF01F0BD98BD9A190E4A
:10021800BE6E3AEF01F00750D8A415EF01F017EFC2
:1002280001F026EF01F0020E0618D8A41EEF01F027
:1002380020EF01F026EF01F0BD98BD8A250EBE6EB5
:100248003AEF01F00750D8A42CEF01F02EEF01F09F
:1002580036EF01F0020E066434EF01F036EF01F0DC
:100268003AEF01F0BD98BD9A320EBE6E000E3CEC1E
:1002780007F006C028F00750F7EC04F018500718EC
:10028800D8A449EF01F04BEF01F00DEF00F0175043
:100298000618D8A452EF01F054EF01F00DEF00F06A
:1002A800BD98BD9A000EBE6E000E066E000E076E5B
:1002B800000E086E0B0E106E0DEF00F00F50D8B444
:1002C80068EF01F06AEF01F097EF01F00AEC03F034
:1002D80008501A18D8B473EF01F075EF01F095EFD4
:1002E80001F0010E286E04501DEC08F02E6E590E18
:1002F8002E6481EF01F083EF01F08DEF01F0010E24
:10030800286E05501DEC08F0056E000E046E93EF84
:1003180001F0010E286E04501DEC08F0046E1AC09E
:1003280008F0000E0F6E8290828A04C028F00550F3
:10033800F7EC04F015500518D8A4A5EF01F0A7EFC5
:1003480001F00DEF00F014500418D8A4AEEF01F03E
:10035800B0EF01F00DEF00F0829AA0829D80F28844
:10036800F086F088000E0E6E010E0D6E5BEC06F046
:10037800000E046E000E056E000E086E030E106E61
:100388000DEF00F010502E6E2F6A2F50000AD8B4CF
:10039800D0EF01F00DEF00F02E50000AD8B413EFA3
:1003A80000F0010AD8B41DEF00F0030AD8B427EF13
:1003B80000F0010AD8B42AEF00F0070AD8B482EF97
:1003C80000F0010AD8B48CEF00F0030AD8B496EF15
:1003D80000F0010AD8B4A0EF00F00F0AD8B4AAEFD1
:1003E80000F0010AD8B4B4EF00F0030AD8B4BEEFA5
:1003F80000F0010AD8B462EF01F00DEF00F00DEF44
:1004080000F007EF00F0F0A80CEF02F00EEF02F09A
:1004180009EF03F0F0A213EF02F015EF02F009EF75
:1004280003F0B4EC08F0D3EF02F01B50D8A41FEF90
:1004380002F021EF02F025EF02F0590E1B6E2BEFB0
:1004480002F0010E1D6E1B5033EC08F01B6E000EFF
:100458001D6E000E08EC06F01BC01DF0010E08EC26
:1004680006F008EF03F01C50D8A43DEF02F03FEF70
:1004780002F043EF02F0230E1C6E49EF02F0010E6A
:100488001D6E1C5033EC08F01C6E000E1D6E000E25
:1004980008EC06F01CC01DF0020E08EC06F008EF90
:1004A80003F0A8EC06F0030E106E08EF03F03150CD
:1004B800D8A461EF02F063EF02F067EF02F0590E83
:1004C800316E08EF03F0010E1D6E315033EC08F069
:1004D800316E08EF03F03250D8A475EF02F077EFD1
:1004E80002F07BEF02F0230E326E08EF03F0010EEC
:1004F8001D6E325033EC08F0326E08EF03F01750DF
:10050800D8A489EF02F08BEF02F08FEF02F0590EBA
:10051800176E08EF03F0010E1D6E175033EC08F04C
:10052800176E08EF03F01850D8A49DEF02F09FEF64
:1005380002F0A3EF02F0590E186E08EF03F0010E57
:100548001D6E185033EC08F0186E08EF03F01450C5
:10055800D8A4B1EF02F0B3EF02F0B7EF02F0590EF2
:10056800146E08EF03F0010E1D6E145033EC08F002
:10057800146E08EF03F01550D8A4C5EF02F0C7EFCA
:1005880002F0CBEF02F0590E156E08EF03F0010EE2
:100598001D6E155033EC08F0156E08EF03F010507F
:1005A800226E236A2350000AD8B4DDEF02F008EF68
:1005B80003F02250000AD8B419EF02F0010AD8B4A7
:1005C80037EF02F0030AD8B455EF02F0010AD8B4A5
:1005D80008EF03F0070AD8B45BEF02F0010AD8B4B9
:1005E8006FEF02F0030AD8B483EF02F0010AD8B41F
:1005F80097EF02F00F0AD8B4ABEF02F0010AD8B4B3
:10060800BFEF02F008EF03F0F0921200C580C5B00A
:1006180010EF03F012EF03F00BEF03F09E96D00EED
:10062800C96E9EA61AEF03F01CEF03F015EF03F056
:100638009E96C5AC22EF03F024EF03F02EEF03F0F3
:10064800C584C5B42AEF03F02CEF03F025EF03F0BF
:10065800AEEF03F0000EC96E9EA635EF03F037EF3C
:1006680003F030EF03F09E96C5AC3DEF03F03FEF8B
:1006780003F049EF03F0C584C5B445EF03F047EF35
:1006880003F040EF03F0AEEF03F0C582C5B24FEFC1
:1006980003F051EF03F04AEF03F09E96D10EC96EB6
:1006A8009EA659EF03F05BEF03F054EF03F09E961C
:1006B800C5AC61EF03F063EF03F06DEF03F0C584A1
:1006C800C5B469EF03F06BEF03F064EF03F0AEEF2E
:1006D80003F0C586C7A073EF03F075EF03F06EEF64
:1006E80003F0C9CF1AF0C59AC588C5B87EEF03F0E4
:1006F80080EF03F079EF03F0C586C7A086EF03F01B
:1007080088EF03F081EF03F0C9CF1BF0C59AC588C5
:10071800C5B891EF03F093EF03F08CEF03F0C586B3
:10072800C7A099EF03F09BEF03F094EF03F0C9CF54
:100738001CF0C58AC588C5B8A4EF03F0A6EF03F07E
:100748009FEF03F0C584C5B4ACEF03F0AEEF03F040
:10075800A7EF03F01200C580C5B0B5EF03F0B7EFFF
:1007680003F0B0EF03F09E96D00EC96E9EA6BFEFC1
:1007780003F0C1EF03F0BAEF03F09E96C5ACC7EFE4
:1007880003F0C9EF03F0D3EF03F0C584C5B4CFEF8E
:1007980003F0D1EF03F0CAEF03F053EF04F0000EBB
:1007A800C96E9EA6DAEF03F0DCEF03F0D5EF03F095
:1007B8009E96C5ACE2EF03F0E4EF03F0EEEF03F032
:1007C800C584C5B4EAEF03F0ECEF03F0E5EF03F0FE
:1007D80053EF04F0C582C5B2F4EF03F0F6EF03F06F
:1007E800EFEF03F09E96D10EC96E9EA6FEEF03F0C2
:1007F80000EF04F0F9EF03F09E96C5AC06EF04F0A5
:1008080008EF04F012EF04F0C584C5B40EEF04F04D
:1008180010EF04F009EF04F053EF04F0C586C7A009
:1008280018EF04F01AEF04F013EF04F0C9CF1AF030
:10083800C59AC588C5B823EF04F025EF04F01EEF6C
:1008480004F0C586C7A02BEF04F02DEF04F026EFC7
:1008580004F0C9CF1BF0C59AC588C5B836EF04F0B7
:1008680038EF04F031EF04F0C586C7A03EEF04F07E
:1008780040EF04F039EF04F0C9CF1CF0C58AC588F1
:10088800C5B849EF04F04BEF04F044EF04F0C58419
:10089800C5B451EF04F053EF04F04CEF04F012002C
:1008A800F0A659EF04F05BEF04F0F6EF04F0F0A0C7
:1008B80060EF04F062EF04F0F6EF04F0B4EC08F037
:1008C800C0EF04F01B0E216E000E226E8FEC07F0B5
:1008D800000E1D6E000E08EC06F01BC01DF0010E88
:1008E80008EC06F0F5EF04F01C0E216E000E226EE7
:1008F8006BEC07F0000E1D6E000E08EC06F01CC035
:100908001DF0020E08EC06F0F5EF04F0A8EC06F076
:10091800030E106EF5EF04F0310E216E000E226EFC
:100928008FEC07F0F5EF04F0320E216E000E226E08
:100938006BEC07F0F5EF04F0170E216E000E226E37
:100948008FEC07F0F5EF04F0180E216E000E226E02
:100958008FEC07F0F5EF04F0140E216E000E226EF6
:100968008FEC07F0F5EF04F0150E216E000E226EE5
:100978008FEC07F0F5EF04F01050246E256A25502F
:10098800000AD8B4CAEF04F0F5EF04F02450000AC6
:10099800D8B466EF04F0010AD8B478EF04F0030A7B
:1009A800D8B48AEF04F0010AD8B4F5EF04F0070AC6
:1009B800D8B490EF04F0010AD8B498EF04F0030A11
:1009C800D8B4A0EF04F0010AD8B4A8EF04F00F0AD5
:1009D800D8B4B0EF04F0010AD8B4B8EF04F0F5EFDA
:1009E80004F0F09012002D6E2D380F0B0F0B296EAE
:1009F8002D500F0B2A6E28380F0B0F0B2B6E28501B
:100A08000F0B2C6E1350D8B40CEF05F00EEF05F059
:100A18001DEF05F01150D8B414EF05F016EF05F0EE
:100A28001DEF05F08950A00E00D0E82EFDD725EF68
:100A380005F029C089FF8A88A00E00D0E82EFDD7CE
:100A48008A981350D8B42BEF05F02DEF05F03CEF42
:100A580005F01150D8B433EF05F035EF05F03CEF51
:100A680005F08950A00E00D0E82EFDD744EF05F020
:100A78002AC089FF8A8AA00E00D0E82EFDD78A9A5C
:100A88001250D8B44AEF05F04CEF05F05BEF05F0D3
:100A98001150D8B452EF05F054EF05F05BEF05F0B4
:100AA8008950A00E00D0E82EFDD763EF05F02BC0CB
:100AB80089FF8A8CA00E00D0E82EFDD78A9C1250A0
:100AC800D8B469EF05F06BEF05F07AEF05F0115037
:100AD800D8B471EF05F073EF05F07AEF05F089509F
:100AE800A00E00D0E82EFDD782EF05F02CC089FFBC
:100AF8008A8EA00E00D0E82EFDD78A9E1200F2A89A
:100B080088EF05F08AEF05F007EF06F0F2A28FEF05
:100B180005F091EF05F007EF06F0B4EC08F0D1EF1F
:100B280005F0010E106EBFEC08F006EF06F0030E9C
:100B3800106EA8EC06F0C2EC08F006EF06F0A8EC80
:100B480006F0030E106E06EF06F0BFEC08F0040E78
:100B5800106E06EF06F0BFEC08F0050E106E06EFFB
:100B680006F0BFEC08F0060E106E06EF06F0BFECBC
:100B780008F0070E106E06EF06F0BFEC08F0080E3E
:100B8800106E06EF06F0BFEC08F0090E106E06EFC7
:100B980006F0C2EC08F0A3EF05F01050226E236AAD
:100BA8002350000AD8B4DBEF05F006EF06F0225018
:100BB800000AD8B495EF05F0010AD8B49BEF05F008
:100BC800030AD8B4A3EF05F0010AD8B4A9EF05F0D9
:100BD800070AD8B4AFEF05F0010AD8B4B5EF05F0AD
:100BE800030AD8B4BBEF05F0010AD8B4C1EF05F089
:100BF8000F0AD8B4C7EF05F0010AD8B4CDEF05F055
:100C080006EF06F0F29212001E6EC580C5B00FEF17
:100C180006F011EF06F00AEF06F09E96D00EC96EA8
:100C28009EA619EF06F01BEF06F014EF06F09E964D
:100C3800C5AC21EF06F023EF06F02DEF06F0C584D2
:100C4800C5B429EF06F02BEF06F024EF06F05AEFB3
:100C580006F01EC0C9FF9EA634EF06F036EF06F078
:100C68002FEF06F09E96C5AC3CEF06F03EEF06F07F
:100C780048EF06F0C584C5B444EF06F046EF06F029
:100C88003FEF06F05AEF06F01DC0C9FF9EA64FEFD2
:100C980006F051EF06F04AEF06F09E96C584C5B4FB
:100CA80058EF06F05AEF06F053EF06F012000AEC80
:100CB80003F0020E286E1B501DEC08F02C6E590E26
:100CC8002C6469EF06F06BEF06F09DEF06F0010E5D
:100CD800286E1B501DEC08F02C6E230E2C6477EF49
:100CE80006F079EF06F089EF06F0000E036E020EAB
:100CF800286E1B501DEC08F0026E600E286E1B500B
:100D080007EC08F0026EA5EF06F0010E286E1C50E5
:100D18001DEC08F0036E020E286E1B501DEC08F047
:100D2800026E600E286E1B5007EC08F0026EA5EFED
:100D380006F01CC003F0020E286E1B501DEC08F0D4
:100D4800026E010E0F6E1200AFEC03F0020E1D6E64
:100D58001B5049EC08F0216E590E2164B6EF06F0DD
:100D6800B8EF06F0EAEF06F0010E1D6E1B5049ECD5
:100D780008F0216E230E2164C4EF06F0C6EF06F0DA
:100D8800D6EF06F0000E036E020E1D6E1B5049ECE6
:100D980008F0026E600E1D6E1B5033EC08F0026EF8
:100DA800F2EF06F0010E1D6E1C5049EC08F0036EC0
:100DB800020E1D6E1B5049EC08F0026E600E1D6E8F
:100DC8001B5033EC08F0026EF2EF06F01CC003F083
:100DD800020E1D6E1B5049EC08F0026E010E0F6EDC
:100DE8001200F2AAFAEF06F0FCEF06F03BEF07F06C
:100DF800F2A401EF07F003EF07F03BEF07F029EF4C
:100E080007F0AFEC03F032501C18D8A40EEF07F02F
:100E180010EF07F01FEF07F031501B18D8A417EF99
:100E280007F019EF07F01FEF07F0010E0E6E030E23
:100E3800106E3AEF07F0000E0E6E000E0D6E3AEFD0
:100E480007F0010E0F6E3AEF07F010501D6E1E6A84
:100E58001E50000AD8B433EF07F025EF07F01D50F5
:100E6800020AD8B405EF07F025EF07F0F294120054
:100E78002A6E51EF07F0000E136E000E126E6AEF25
:100E880007F0000E136E010E126E6AEF07F0010EE6
:100E9800136E000E126E6AEF07F02A50286E296A48
:100EA8002950000AD8B45BEF07F06AEF07F0285022
:100EB800000AD8B43FEF07F0010AD8B445EF07F0AD
:100EC800030AD8B44BEF07F06AEF07F0120021C00D
:100ED800D9FF22C0DAFF230EDE18D8A476EF07F078
:100EE80078EF07F080EF07F021C0D9FF22C0DAFFC2
:100EF800000EDF6E8EEF07F0010E1D6E21C0D9FFC8
:100F080022C0DAFFDF5049EC08F021C0D9FF22C027
:100F1800DAFFDF6E120021C0D9FF22C0DAFF590EB6
:100F2800DE18D8A49AEF07F09CEF07F0A4EF07F0BB
:100F380021C0D9FF22C0DAFF000EDF6EB2EF07F042
:100F4800010E1D6E21C0D9FF22C0DAFFDF5049EC27
:100F580008F021C0D9FF22C0DAFFDF6E1200A0A27C
:100F6800B8EF07F0BAEF07F0D3EF07F0A1A2BFEF91
:100F780007F0C1EF07F0D3EF07F00950D8B4C7EF77
:100F880007F0C9EF07F0CFEF07F08290A092000EAC
:100F9800096ED2EF07F08280010E096EA19212004D
:100FA8008A0EF66E110EF76E000EF86E0900F5CF78
:100FB80030F00900F5CF31F00900F5CF32F000EE3E
:100FC80001F01C0EEE6AE806FDE133903392000E44
:100FD800F86E000109EF00F00600D9CF26F0DACF4D
:100FE80027F0F5EC06F05FEC08F0B3EC07F083ECC3
:100FF80005F054EC04F007EC02F027C0DAFF26C035
:10100800D9FF339211002A6E28502A5C2B6E2BC010
:1010180029F00F0E2916090E296415EF08F017EFAD
:1010280008F01BEF08F02B50FA0F1CEF08F02B50BC
:1010380012002A6E2A5028242B6E2BC029F00F0E7E
:101048002916090E29642BEF08F02DEF08F031EF6F
:1010580008F02B50060F32EF08F02B5012001F6ECD
:101068001D501F5C206E20C01EF00F0E1E16090EAC
:101078001E6441EF08F043EF08F047EF08F02050F6
:10108800FA0F48EF08F0205012001F6E1F501D2461
:10109800206E20C01EF00F0E1E16090E1E6457EF9C
:1010A80008F059EF08F05DEF08F02050060F5EEFEA
:1010B80008F0205012009DA064EF08F066EF08F0D9
:1010C8006FEF08F09EA06BEF08F06DEF08F06FEF80
:1010D80008F0111E9E901200310ECB6E000EBD6EF0
:1010E800190EBE6E9494010ECA6ECA840C0EBD6EA3
:1010F80000F0000EBE6E1200000E946E180E9412D0
:10110800000E926E070E936E94908280949482845F
:10111800949A829A1200E20ED31280EC08F0BAEC8C
:1011280008F0A7EC08F09CEC08F070EC08F012004E
:10113800F00EF26E020EA06E010E9D6E0F0EF116ED
:10114800180EF06E1200830ED56EB10ECD6E910E94
:10115800B16E1200880E286E880EF7EC04F01200AB
:10116800A082000EB36E000EB26E1200090EC86E99
:10117800280EC66E1200D59ECD801200D58ECD9059
:0511880012000000123E
:020000040020DA
:08000000FFFFFFFFFFFFFFFF00
:020000040030CA
:0E000000FF08191EFF8180FF0FC00FE00F40A8
:00000001FF
