:020000040000FA
:0400000007EF00F016
:100008003382D6ED07F0BAEF07F075EC08F094EC00
:1000180008F0C80E00D0E82EFDD7C6EF01F01BC0CF
:1000280028F01C5097EC04F0010EDCEC06F00DEF04
:1000380000F01BC028F01C5097EC04F0020EDCEC1A
:1000480006F00DEF00F003000DEF00F00F50D8B4EC
:1000580030EF00F032EF00F050EF00F007EC02F064
:1000680032501C18D8A43BEF00F03DEF00F04AEFE7
:1000780000F031501B18D8A444EF00F046EF00F010
:100088004AEF00F0010E0E6E4EEF00F0000E0E6EFD
:10009800000E0D6E000E0F6E1BC028F01C5097EC62
:1000A80004F0000EDCEC06F00E04D8A45EEF00F0BD
:1000B80060EF00F06CEF00F00D50D8A466EF00F090
:1000C80068EF00F06CEF00F00A0E106E0DEF00F014
:1000D8001C500318D8A473EF00F075EF00F003EF7D
:1000E80002F01B500218D8A47CEF00F07EEF00F05D
:1000F80003EF02F0020E106E0DEF00F031C028F091
:10010800325097EC04F0010EDCEC06F00DEF00F035
:1001180031C028F0325097EC04F0020EDCEC06F007
:100128000DEF00F017C028F0185097EC04F0010EFE
:10013800DCEC06F00DEF00F017C028F0185097EC33
:1001480004F0020EDCEC06F00DEF00F014C028F00D
:10015800155097EC04F0010EDCEC06F00DEF00F002
:1001680014C028F0155097EC04F0020EDCEC06F0F1
:100178000DEF00F00F50D8B4C4EF00F0C6EF00F058
:10018800F3EF00F007EC02F008501A18D8B4CFEFDC
:1001980000F0D1EF00F0F1EF00F0010E286E0650EC
:1001A80003EC08F02E6E590E2E64DDEF00F0DFEF41
:1001B80000F0E9EF00F0010E286E075003EC08F09C
:1001C800076E000E066EEFEF00F0010E286E065067
:1001D80003EC08F0066E1AC008F0000E0F6EA0922D
:1001E8009D90F298F096F09882900750D8A4FFEF6F
:1001F80000F001EF01F00FEF01F00604D8A407EFBB
:1002080001F009EF01F00FEF01F0BD98BD9A190E4A
:10021800BE6E3AEF01F00750D8A415EF01F017EFC2
:1002280001F026EF01F0020E0618D8A41EEF01F027
:1002380020EF01F026EF01F0BD98BD8A250EBE6EB5
:100248003AEF01F00750D8A42CEF01F02EEF01F09F
:1002580036EF01F0020E066434EF01F036EF01F0DC
:100268003AEF01F0BD98BD9A320EBE6E000EDCEC7E
:1002780006F006C028F0075097EC04F0185007184D
:10028800D8A449EF01F04BEF01F00DEF00F0175043
:100298000618D8A452EF01F054EF01F00DEF00F06A
:1002A800BD98BD9A000EBE6E000E066E000E076E5B
:1002B800000E086E0B0E106E0DEF00F00F50D8B444
:1002C80068EF01F06AEF01F097EF01F007EC02F038
:1002D80008501A18D8B473EF01F075EF01F095EFD4
:1002E80001F0010E286E045003EC08F02E6E590E32
:1002F8002E6481EF01F083EF01F08DEF01F0010E24
:10030800286E055003EC08F0056E000E046E93EF9E
:1003180001F0010E286E045003EC08F0046E1AC0B8
:1003280008F0000E0F6E8290828A04C028F00550F3
:1003380097EC04F015500518D8A4A5EF01F0A7EF25
:1003480001F00DEF00F014500418D8A4AEEF01F03E
:10035800B0EF01F00DEF00F0829AA0829D80F28844
:10036800F086F088000E0E6E010E0D6EFBEC05F0A7
:10037800000E046E000E056E000E086E030E106E61
:100388000DEF00F010502E6E2F6A2F50000AD8B4CF
:10039800D0EF01F00DEF00F02E50000AD8B413EFA3
:1003A80000F0010AD8B41DEF00F0030AD8B427EF13
:1003B80000F0010AD8B42AEF00F0070AD8B482EF97
:1003C80000F0010AD8B48CEF00F0030AD8B496EF15
:1003D80000F0010AD8B4A0EF00F00F0AD8B4AAEFD1
:1003E80000F0010AD8B4B4EF00F0030AD8B4BEEFA5
:1003F80000F0010AD8B462EF01F00DEF00F00DEF44
:1004080000F007EF00F0C580C5B00DEF02F00FEF68
:1004180002F008EF02F09E96D00EC96E9EA617EF66
:1004280002F019EF02F012EF02F09E96C5AC1FEF32
:1004380002F021EF02F02BEF02F0C584C5B427EFDC
:1004480002F029EF02F022EF02F0ABEF02F0000E0B
:10045800C96E9EA632EF02F034EF02F02DEF02F0E3
:100468009E96C5AC3AEF02F03CEF02F046EF02F080
:10047800C584C5B442EF02F044EF02F03DEF02F04C
:10048800ABEF02F0C582C5B24CEF02F04EEF02F0BE
:1004980047EF02F09E96D10EC96E9EA656EF02F067
:1004A80058EF02F051EF02F09E96C5AC5EEF02F0F5
:1004B80060EF02F06AEF02F0C584C5B466EF02F09F
:1004C80068EF02F061EF02F0ABEF02F0C586C7A05B
:1004D80070EF02F072EF02F06BEF02F0C9CF1AF082
:1004E800C59AC588C5B87BEF02F07DEF02F076EFBC
:1004F80002F0C586C7A083EF02F085EF02F07EEF19
:1005080002F0C9CF1BF0C59AC588C5B88EEF02F0B6
:1005180090EF02F089EF02F0C586C7A096EF02F0CF
:1005280098EF02F091EF02F0C9CF1CF0C58AC58898
:10053800C5B8A1EF02F0A3EF02F09CEF02F0C5846A
:10054800C5B4A9EF02F0ABEF02F0A4EF02F012007D
:10055800C580C5B0B2EF02F0B4EF02F0ADEF02F023
:100568009E96D00EC96E9EA6BCEF02F0BEEF02F0BA
:10057800B7EF02F09E96C5ACC4EF02F0C6EF02F0EA
:10058800D0EF02F0C584C5B4CCEF02F0CEEF02F094
:10059800C7EF02F050EF03F0000EC96E9EA6D7EF2A
:1005A80002F0D9EF02F0D2EF02F09E96C5ACDFEF71
:1005B80002F0E1EF02F0EBEF02F0C584C5B4E7EF1B
:1005C80002F0E9EF02F0E2EF02F050EF03F0C5822B
:1005D800C5B2F1EF02F0F3EF02F0ECEF02F09E96F5
:1005E800D10EC96E9EA6FBEF02F0FDEF02F0F6EF0A
:1005F80002F09E96C5AC03EF03F005EF03F00FEF92
:1006080003F0C584C5B40BEF03F00DEF03F006EF5C
:1006180003F050EF03F0C586C7A015EF03F017EFFE
:1006280003F010EF03F0C9CF1AF0C59AC588C5B812
:1006380020EF03F022EF03F01BEF03F0C586C7A0FD
:1006480028EF03F02AEF03F023EF03F0C9CF1BF0E4
:10065800C59AC588C5B833EF03F035EF03F02EEF20
:1006680003F0C586C7A03BEF03F03DEF03F036EF7C
:1006780003F0C9CF1CF0C58AC588C5B846EF03F09A
:1006880048EF03F041EF03F0C584C5B44EEF03F023
:1006980050EF03F049EF03F01200F0A856EF03F013
:1006A80058EF03F0F3EF03F0F0A25DEF03F05FEF14
:1006B80003F0F3EF03F09AEC08F0BDEF03F01B0E24
:1006C800216E000E226E76EC07F0000E1D6E000EF5
:1006D800A8EC05F01BC01DF0010EA8EC05F0F2EF28
:1006E80003F01C0E216E000E226E53EC07F0000E74
:1006F8001D6E000EA8EC05F01CC01DF0020EA8EC43
:1007080005F0F2EF03F048EC06F0030E106EF2EF7E
:1007180003F0310E216E000E226E76EC07F0F2EF38
:1007280003F0320E216E000E226E53EC07F0F2EF4A
:1007380003F0170E216E000E226E76EC07F0F2EF32
:1007480003F0180E216E000E226E76EC07F0F2EF21
:1007580003F0140E216E000E226E76EC07F0F2EF15
:1007680003F0150E216E000E226E76EC07F0F2EF04
:1007780003F01050236E246A2450000AD8B4C7EF3F
:1007880003F0F2EF03F02350000AD8B463EF03F04C
:10079800010AD8B475EF03F0030AD8B487EF03F061
:1007A800010AD8B4F2EF03F0070AD8B48DEF03F0CA
:1007B800010AD8B495EF03F0030AD8B49DEF03F00B
:1007C800010AD8B4A5EF03F00F0AD8B4ADEF03F0CF
:1007D800010AD8B4B5EF03F0F2EF03F0F09212007B
:1007E800F0A6F9EF03F0FBEF03F096EF04F0F0A0AA
:1007F80000EF04F002EF04F096EF04F09AEC08F032
:1008080060EF04F01B0E216E000E226E2FEC07F035
:10081800000E1D6E000EA8EC05F01BC01DF0010EA9
:10082800A8EC05F095EF04F01C0E216E000E226E68
:100838000BEC07F0000E1D6E000EA8EC05F01CC0B6
:100848001DF0020EA8EC05F095EF04F048EC06F058
:10085800030E106E95EF04F0310E216E000E226E1D
:100868002FEC07F095EF04F0320E216E000E226E89
:100878000BEC07F095EF04F0170E216E000E226EB8
:100888002FEC07F095EF04F0180E216E000E226E83
:100898002FEC07F095EF04F0140E216E000E226E77
:1008A8002FEC07F095EF04F0150E216E000E226E66
:1008B8002FEC07F095EF04F01050246E256A2550B0
:1008C800000AD8B46AEF04F095EF04F02450000A47
:1008D800D8B406EF04F0010AD8B418EF04F0030AFC
:1008E800D8B42AEF04F0010AD8B495EF04F0070A47
:1008F800D8B430EF04F0010AD8B438EF04F0030A92
:10090800D8B440EF04F0010AD8B448EF04F00F0A55
:10091800D8B450EF04F0010AD8B458EF04F095EFBA
:1009280004F0F09012002D6E2D380F0B0F0B296E6E
:100938002D500F0B2A6E28380F0B0F0B2B6E2850DB
:100948000F0B2C6E1350D8B4ACEF04F0AEEF04F0DC
:10095800BDEF04F01150D8B4B4EF04F0B6EF04F0D2
:10096800BDEF04F08950A00E00D0E82EFDD7C5EFEA
:1009780004F029C089FF8A88A00E00D0E82EFDD790
:100988008A981350D8B4CBEF04F0CDEF04F0DCEF25
:1009980004F01150D8B4D3EF04F0D5EF04F0DCEF35
:1009A80004F08950A00E00D0E82EFDD7E4EF04F043
:1009B8002AC089FF8A8AA00E00D0E82EFDD78A9A1D
:1009C8001250D8B4EAEF04F0ECEF04F0FBEF04F0B7
:1009D8001150D8B4F2EF04F0F4EF04F0FBEF04F098
:1009E8008950A00E00D0E82EFDD703EF05F02BC0EC
:1009F80089FF8A8CA00E00D0E82EFDD78A9C125061
:100A0800D8B409EF05F00BEF05F01AEF05F0115017
:100A1800D8B411EF05F013EF05F01AEF05F089507F
:100A2800A00E00D0E82EFDD722EF05F02CC089FFDC
:100A38008A8EA00E00D0E82EFDD78A9E1200F2A85A
:100A480028EF05F02AEF05F0A7EF05F0F2A22FEF47
:100A580005F031EF05F0A7EF05F09AEC08F071EF1B
:100A680005F0010E106EA5EC08F0A6EF05F0030ED8
:100A7800106E48EC06F0A8EC08F0A6EF05F048EC7C
:100A880006F0030E106EA6EF05F0A5EC08F0040EB4
:100A9800106EA6EF05F0A5EC08F0050E106EA6EF97
:100AA80005F0A5EC08F0060E106EA6EF05F0A5EC13
:100AB80008F0070E106EA6EF05F0A5EC08F0080E7A
:100AC800106EA6EF05F0A5EC08F0090E106EA6EF63
:100AD80005F0A8EC08F043EF05F01050226E236AE9
:100AE8002350000AD8B47BEF05F0A6EF05F022509A
:100AF800000AD8B435EF05F0010AD8B43BEF05F089
:100B0800030AD8B443EF05F0010AD8B449EF05F059
:100B1800070AD8B44FEF05F0010AD8B455EF05F02D
:100B2800030AD8B45BEF05F0010AD8B461EF05F009
:100B38000F0AD8B467EF05F0010AD8B46DEF05F0D5
:100B4800A6EF05F0F29212001E6EC580C5B0AFEF99
:100B580005F0B1EF05F0AAEF05F09E96D00EC96E2C
:100B68009EA6B9EF05F0BBEF05F0B4EF05F09E9631
:100B7800C5ACC1EF05F0C3EF05F0CDEF05F0C584B6
:100B8800C5B4C9EF05F0CBEF05F0C4EF05F0FAEFF7
:100B980005F01EC0C9FF9EA6D4EF05F0D6EF05F0FC
:100BA800CFEF05F09E96C5ACDCEF05F0DEEF05F063
:100BB800E8EF05F0C584C5B4E4EF05F0E6EF05F00D
:100BC800DFEF05F0FAEF05F01DC0C9FF9EA6EFEFB5
:100BD80005F0F1EF05F0EAEF05F09E96C584C5B47F
:100BE800F8EF05F0FAEF05F0F3EF05F0120007EC67
:100BF80002F0020E286E1B5003EC08F02C6E590E02
:100C08002C6409EF06F00BEF06F03DEF06F0010E3D
:100C1800286E1B5003EC08F02C6E230E2C6417EF83
:100C280006F019EF06F029EF06F0000E036E020E2B
:100C3800286E1B5003EC08F0026E600E286E1B50E5
:100C4800EDEC07F0026E45EF06F0010E286E1C5021
:100C580003EC08F0036E020E286E1B5003EC08F03C
:100C6800026E600E286E1B50EDEC07F0026E45EF29
:100C780006F01CC003F0020E286E1B5003EC08F0AF
:100C8800026E010E0F6E1200ACEC02F0020E1D6E29
:100C98001B502FEC08F0216E590E216456EF06F018
:100CA80058EF06F08AEF06F0010E1D6E1B502FEC70
:100CB80008F0216E230E216464EF06F066EF06F05B
:100CC80076EF06F0000E036E020E1D6E1B502FEC21
:100CD80008F0026E600E1D6E1B5019EC08F0026ED3
:100CE80092EF06F0010E1D6E1C502FEC08F0036EFB
:100CF800020E1D6E1B502FEC08F0026E600E1D6E6A
:100D08001B5019EC08F0026E92EF06F01CC003F0BD
:100D1800020E1D6E1B502FEC08F0026E010E0F6EB6
:100D28001200F2AA9AEF06F09CEF06F0DBEF06F04D
:100D3800F2A4A1EF06F0A3EF06F0DBEF06F0C9EF8F
:100D480006F0ACEC02F032501C18D8A4AEEF06F056
:100D5800B0EF06F0BFEF06F031501B18D8A4B7EF7C
:100D680006F0B9EF06F0BFEF06F0010E0E6E030EA7
:100D7800106EDAEF06F0000E0E6E000E0D6EDAEF52
:100D880006F0010E0F6EDAEF06F010501D6E1E6AA7
:100D98001E50000AD8B4D3EF06F0C5EF06F01D5078
:100DA800020AD8B4A5EF06F0C5EF06F0F2941200D7
:100DB8002A6EF1EF06F0000E136E000E126E0AEFA7
:100DC80007F0000E136E010E126E0AEF07F0010E07
:100DD800136E000E126E0AEF07F02A50286E296A69
:100DE8002950000AD8B4FBEF06F00AEF07F02850A4
:100DF800000AD8B4DFEF06F0010AD8B4E5EF06F030
:100E0800030AD8B4EBEF06F00AEF07F0120021C08E
:100E1800D9FF22C0DAFF230EDE18D8A416EF07F098
:100E280018EF07F020EF07F021C0D9FF22C0DAFF42
:100E3800000EDF6E2EEF07F0010E1D6E21C0D9FFE8
:100E480022C0DAFFDF502FEC08F021C0D9FF22C002
:100E5800DAFFDF6E120021C0D9FF22C0DAFF590E77
:100E6800DE18D8A43AEF07F03CEF07F044EF07F09C
:100E780021C0D9FF22C0DAFF000EDF6E52EF07F063
:100E8800010E1D6E21C0D9FF22C0DAFFDF502FEC02
:100E980008F021C0D9FF22C0DAFFDF6E120021C09E
:100EA800D9FF22C0DAFFDF50D8A45DEF07F05FEF6B
:100EB80007F067EF07F021C0D9FF22C0DAFF230E41
:100EC800DF6E75EF07F0010E1D6E21C0D9FF22C03D
:100ED800DAFFDF5019EC08F021C0D9FF22C0DAFF91
:100EE800DF6E120021C0D9FF22C0DAFFDF50D8A47C
:100EF80080EF07F082EF07F08AEF07F021C0D9FFF3
:100F080022C0DAFF590EDF6E98EF07F0010E1D6E52
:100F180021C0D9FF22C0DAFFDF5019EC08F021C048
:100F2800D9FF22C0DAFFDF6E1200A0A29EEF07F001
:100F3800A0EF07F0B9EF07F0A1A2A5EF07F0A7EF20
:100F480007F0B9EF07F00950D8B4ADEF07F0AFEFED
:100F580007F0B5EF07F08290A092000E096EB8EF87
:100F680007F08280010E096EA1921200560EF66EED
:100F7800110EF76E000EF86E0900F5CF30F009007B
:100F8800F5CF31F00900F5CF32F000EE01F01C0E7C
:100F9800EE6AE806FDE133903392000EF86E000128
:100FA80009EF00F00600D9CF26F0DACF27F095EC4C
:100FB80006F045EC08F099EC07F023EC05F0F4ECAA
:100FC80003F051EC03F027C0DAFF26C0D9FF3392B3
:100FD80011002A6E28502A5C2B6E2BC029F00F0EA8
:100FE8002916090E2964FBEF07F0FDEF07F001EF62
:100FF80008F02B50FA0F02EF08F02B5012002A6E5F
:101008002A5028242B6E2BC029F00F0E2916090E02
:10101800296411EF08F013EF08F017EF08F02B50D0
:10102800060F18EF08F02B5012001F6E1D501F5CA2
:10103800206E20C01EF00F0E1E16090E1E6427EF2C
:1010480008F029EF08F02DEF08F02050FA0F2EEFE6
:1010580008F0205012001F6E1F501D24206E20C063
:101068001EF00F0E1E16090E1E643DEF08F03FEF2E
:1010780008F043EF08F02050060F44EF08F0205026
:1010880012009DA04AEF08F04CEF08F055EF08F069
:101098009EA051EF08F053EF08F055EF08F0111E2D
:1010A8009E901200310ECB6E000EBD6E190EBE6EF4
:1010B8009494010ECA6ECA840C0EBD6E00F0000E28
:1010C800BE6E1200000E946E180E9412000E926EF0
:1010D800070E936E9490828094948284949A829A54
:1010E8001200E20ED31266EC08F0A0EC08F08DECCA
:1010F80008F082EC08F056EC08F01200F00EF26EE0
:10110800020EA06E010E9D6E0F0EF116180EF06EF7
:101118001200830ED56EB10ECD6E910EB16E120017
:10112800880E286E880E97EC04F01200A082000E3C
:10113800B36E000EB26E1200090EC86E280EC66E8F
:101148001200D59ECD801200D58ECD9012000000E1
:011158001284
:020000040020DA
:08000000FFFFFFFFFFFFFFFF00
:020000040030CA
:0E000000FF08191EFF8180FF0FC00FE00F40A8
:00000001FF
