:020000040000FA
:0400000007EF00F016
:100008002F8298ED08F0F4EF07F0A7EC08F0C6ECA3
:1000180008F0C80E00D0E82EFDD7C6EF01F00BC0DF
:1000280024F00C505FEC05F0010EA4EC07F00DEF86
:1000380000F00BC024F00C505FEC05F0020EA4ECAD
:1000480007F00DEF00F003000DEF00F01850D8B4E2
:1000580030EF00F032EF00F050EF00F015EC04F054
:100068002E500C18D8A43BEF00F03DEF00F04AEFFB
:1000780000F02D500B18D8A444EF00F046EF00F024
:100088004AEF00F0010E176E4EEF00F0000E176EEB
:10009800000E166E000E186E0BC024F00C505FECAC
:1000A80005F0000EA4EC07F01704D8A45EEF00F0EA
:1000B80060EF00F06CEF00F01650D8A466EF00F087
:1000C80068EF00F06CEF00F00A0E196E0DEF00F00B
:1000D8000C500918D8A473EF00F075EF00F003EF87
:1000E80002F00B500818D8A47CEF00F07EEF00F067
:1000F80003EF02F0020E196E0DEF00F02DC024F090
:100108002E505FEC05F0010EA4EC07F00DEF00F0A7
:100118002DC024F02E505FEC05F0020EA4EC07F081
:100128000DEF00F004C024F005505FEC05F0010E5F
:10013800A4EC07F00DEF00F004C024F005505FECCC
:1001480005F0020EA4EC07F00DEF00F001C024F05A
:1001580002505FEC05F0010EA4EC07F00DEF00F083
:1001680001C024F002505FEC05F0020EA4EC07F089
:100178000DEF00F01850D8B4C4EF00F0C6EF00F04F
:10018800F3EF00F015EC04F011500A18D8B4CFEFD3
:1001980000F0D1EF00F0F1EF00F0010E246E0F50E7
:1001A80026EC08F02A6E590E2A64DDEF00F0DFEF26
:1001B80000F0E9EF00F0010E246E105026EC08F074
:1001C800106E000E0F6EEFEF00F0010E246E0F5050
:1001D80026EC08F00F6E0AC011F0000E186EA092FF
:1001E8009D90F298F096F09882901050D8A4FFEF66
:1001F80000F001EF01F00FEF01F00F04D8A407EFB2
:1002080001F009EF01F00FEF01F0BD98BD9A190E4A
:10021800BE6E3AEF01F01050D8A415EF01F017EFB9
:1002280001F026EF01F0020E0F18D8A41EEF01F01E
:1002380020EF01F026EF01F0BD98BD8A250EBE6EB5
:100248003AEF01F01050D8A42CEF01F02EEF01F096
:1002580036EF01F0020E0F6434EF01F036EF01F0D3
:100268003AEF01F0BD98BD9A320EBE6E000EA4ECB6
:1002780007F00FC024F010505FEC05F0055010187F
:10028800D8A449EF01F04BEF01F00DEF00F0045056
:100298000F18D8A452EF01F054EF01F00DEF00F061
:1002A800BD98BD9A000EBE6E000E0F6E000E106E49
:1002B800000E116E0B0E196E0DEF00F01850D8B429
:1002C80068EF01F06AEF01F097EF01F015EC04F028
:1002D80011500A18D8B473EF01F075EF01F095EFDB
:1002E80001F0010E246E0D5026EC08F02A6E590E0E
:1002F8002A6481EF01F083EF01F08DEF01F0010E28
:10030800246E0E5026EC08F00E6E000E0D6E93EF64
:1003180001F0010E246E0D5026EC08F00D6E0AC097
:1003280011F0000E186E8290828A0DC024F00E50D3
:100338005FEC05F002500E18D8A4A5EF01F0A7EF66
:1003480001F00DEF00F001500D18D8A4AEEF01F048
:10035800B0EF01F00DEF00F0829AA0829D80F28844
:10036800F086F088000E176E010E166EC3EC06F0CC
:10037800000E0D6E000E0E6E000E116E030E196E3D
:100388000DEF00F019502A6E2B6A2B50000AD8B4D2
:10039800D0EF01F00DEF00F02A50000AD8B413EFA7
:1003A80000F0010AD8B41DEF00F0030AD8B427EF13
:1003B80000F0010AD8B42AEF00F0070AD8B482EF97
:1003C80000F0010AD8B48CEF00F0030AD8B496EF15
:1003D80000F0010AD8B4A0EF00F00F0AD8B4AAEFD1
:1003E80000F0010AD8B4B4EF00F0030AD8B4BEEFA5
:1003F80000F0010AD8B462EF01F00DEF00F00DEF44
:1004080000F007EF00F0F0A60CEF02F00EEF02F09C
:1004180011EF03F0F0A013EF02F015EF02F011EF67
:1004280003F0CCEC08F0DBEF02F0590E0B18D8A45F
:1004380020EF02F022EF02F026EF02F0000E0B6E22
:100448002CEF02F0010E1D6E0B5052EC08F00B6EF3
:10045800000E1D6E000E70EC06F00BC01DF0010EB4
:1004680070EC06F010EF03F0230E0C18D8A43FEF41
:1004780002F041EF02F045EF02F0000E0C6E4BEF78
:1004880002F0010E1D6E0C5052EC08F00C6E000EBE
:100498001D6E000E70EC06F00CC01DF0020E70EC24
:1004A80006F010EF03F010EC07F0030E196E10EFD2
:1004B80003F0590E2D18D8A464EF02F066EF02F08D
:1004C8006AEF02F0000E2D6E10EF03F0010E1D6EA4
:1004D8002D5052EC08F02D6E10EF03F0230E2E185D
:1004E800D8A479EF02F07BEF02F07FEF02F0000E64
:1004F8002E6E10EF03F0010E1D6E2E5052EC08F018
:100508002E6E10EF03F0590E0418D8A48EEF02F0E7
:1005180090EF02F094EF02F0000E046E10EF03F07B
:10052800010E1D6E045052EC08F0046E10EF03F03B
:10053800590E0518D8A4A3EF02F0A5EF02F0A9EF11
:1005480002F0000E056E10EF03F0010E1D6E05504F
:1005580052EC08F0056E10EF03F0590E0118D8A4FC
:10056800B8EF02F0BAEF02F0BEEF02F0000E016E33
:1005780010EF03F0010E1D6E015052EC08F0016EF1
:1005880010EF03F0590E0218D8A4CDEF02F0CFEF08
:1005980002F0D3EF02F0000E026E10EF03F0010E2E
:1005A8001D6E025052EC08F0026E10EF03F0195065
:1005B800226E236A2350000AD8B4E5EF02F010EF48
:1005C80003F02250000AD8B419EF02F0010AD8B497
:1005D80038EF02F0030AD8B457EF02F0010AD8B492
:1005E80010EF03F0070AD8B45DEF02F0010AD8B49F
:1005F80072EF02F0030AD8B487EF02F0010AD8B408
:100608009CEF02F00F0AD8B4B1EF02F0010AD8B497
:10061800C6EF02F010EF03F0F0901200F0A817EF09
:1006280003F019EF03F014EF04F0F0A21EEF03F04B
:1006380020EF03F014EF04F0CCEC08F0DEEF03F049
:100648000B50D8A42AEF03F02CEF03F030EF03F09F
:10065800590E0B6E36EF03F0010E1D6E0B503CEC7D
:1006680008F00B6E000E1D6E000E70EC06F00BC04D
:100678001DF0010E70EC06F013EF04F00C50D8A436
:1006880048EF03F04AEF03F04EEF03F0230E0C6E31
:1006980054EF03F0010E1D6E0C503CEC08F00C6E8C
:1006A800000E1D6E000E70EC06F00CC01DF0020E60
:1006B80070EC06F013EF04F010EC07F0030E196E5F
:1006C80013EF04F02D50D8A46CEF03F06EEF03F095
:1006D80072EF03F0590E2D6E13EF04F0010E1D6E2C
:1006E8002D503CEC08F02D6E13EF04F02E50D8A4DA
:1006F80080EF03F082EF03F086EF03F0230E2E6EF7
:1007080013EF04F0010E1D6E2E503CEC08F02E6E17
:1007180013EF04F00450D8A494EF03F096EF03F01D
:100728009AEF03F0590E046E13EF04F0010E1D6EDC
:1007380004503CEC08F0046E13EF04F00550D8A404
:10074800A8EF03F0AAEF03F0AEEF03F0590E056E21
:1007580013EF04F0010E1D6E05503CEC08F0056E19
:1007680013EF04F00150D8A4BCEF03F0BEEF03F080
:10077800C2EF03F0590E016E13EF04F0010E1D6E67
:1007880001503CEC08F0016E13EF04F00250D8A4BD
:10079800D0EF03F0D2EF03F0D6EF03F0590E026E5C
:1007A80013EF04F0010E1D6E02503CEC08F0026ECF
:1007B80013EF04F01950226E236A2350000AD8B4AC
:1007C800E8EF03F013EF04F02250000AD8B424EF46
:1007D80003F0010AD8B442EF03F0030AD8B460EF7B
:1007E80003F0010AD8B413EF04F0070AD8B466EF8F
:1007F80003F0010AD8B47AEF03F0030AD8B48EEFF5
:1008080003F0010AD8B4A2EF03F00F0AD8B4B6EF88
:1008180003F0010AD8B4CAEF03F013EF04F0F09222
:100828001200C580C5B01BEF04F01DEF04F016EFF1
:1008380004F09E96D00EC96E9EA625EF04F027EF11
:1008480004F020EF04F09E96C5AC2DEF04F02FEFD6
:1008580004F039EF04F0C584C5B435EF04F037EF80
:1008680004F030EF04F0B9EF04F0000EC96E9EA654
:1008780040EF04F042EF04F03BEF04F09E96C5AC65
:1008880048EF04F04AEF04F054EF04F0C584C5B40F
:1008980050EF04F052EF04F04BEF04F0B9EF04F01E
:1008A800C582C5B25AEF04F05CEF04F055EF04F0CE
:1008B8009E96D10EC96E9EA664EF04F066EF04F012
:1008C8005FEF04F09E96C5AC6CEF04F06EEF04F099
:1008D80078EF04F0C584C5B474EF04F076EF04F043
:1008E8006FEF04F0B9EF04F0C586C7A07EEF04F0FF
:1008F80080EF04F079EF04F0C9CF0AF0C59AC588F3
:10090800C5B889EF04F08BEF04F084EF04F0C586D6
:10091800C7A091EF04F093EF04F08CEF04F0C9CF77
:100928000BF0C59AC588C5B89CEF04F09EEF04F09B
:1009380097EF04F0C586C7A0A4EF04F0A6EF04F073
:100948009FEF04F0C9CF0CF0C58AC588C5B8AFEFD2
:1009580004F0B1EF04F0AAEF04F0C584C5B4B7EF12
:1009680004F0B9EF04F0B2EF04F01200C580C5B08E
:10097800C0EF04F0C2EF04F0BBEF04F09E96D00E77
:10098800C96E9EA6CAEF04F0CCEF04F0C5EF04F0E0
:100998009E96C5ACD2EF04F0D4EF04F0DEEF04F07D
:1009A800C584C5B4DAEF04F0DCEF04F0D5EF04F049
:1009B8005EEF05F0000EC96E9EA6E5EF04F0E7EFC6
:1009C80004F0E0EF04F09E96C5ACEDEF04F0EFEF15
:1009D80004F0F9EF04F0C584C5B4F5EF04F0F7EFBF
:1009E80004F0F0EF04F05EEF05F0C582C5B2FFEF4A
:1009F80004F001EF05F0FAEF04F09E96D10EC96EEF
:100A08009EA609EF05F00BEF05F004EF05F09E96A2
:100A1800C5AC11EF05F013EF05F01DEF05F0C58427
:100A2800C5B419EF05F01BEF05F014EF05F05EEF04
:100A380005F0C586C7A023EF05F025EF05F01EEFEA
:100A480005F0C9CF0AF0C59AC588C5B82EEF05F0DC
:100A580030EF05F029EF05F0C586C7A036EF05F0A1
:100A680038EF05F031EF05F0C9CF0BF0C59AC5880E
:100A7800C5B841EF05F043EF05F03CEF05F0C5863A
:100A8800C7A049EF05F04BEF05F044EF05F0C9CFDB
:100A98000CF0C58AC588C5B854EF05F056EF05F0C7
:100AA8004FEF05F0C584C5B45CEF05F05EEF05F0C7
:100AB80057EF05F01200296E29380F0B0F0B256E22
:100AC80029500F0B266E24380F0B0F0B276E24505E
:100AD8000F0B286E1C50D8B474EF05F076EF05F0B4
:100AE80085EF05F01A50D8B47CEF05F07EEF05F0DD
:100AF80085EF05F08950A00E00D0E82EFDD78DEFC8
:100B080005F025C089FF8A88A00E00D0E82EFDD701
:100B18008A981C50D8B493EF05F095EF05F0A4EF30
:100B280005F01A50D8B49BEF05F09DEF05F0A4EF3F
:100B380005F08950A00E00D0E82EFDD7ACEF05F0E7
:100B480026C089FF8A8AA00E00D0E82EFDD78A9A8F
:100B58001B50D8B4B2EF05F0B4EF05F0C3EF05F0C1
:100B68001A50D8B4BAEF05F0BCEF05F0C3EF05F0A2
:100B78008950A00E00D0E82EFDD7CBEF05F027C096
:100B880089FF8A8CA00E00D0E82EFDD78A9C1B50C6
:100B9800D8B4D1EF05F0D3EF05F0E2EF05F01A5025
:100BA800D8B4D9EF05F0DBEF05F0E2EF05F0895096
:100BB800A00E00D0E82EFDD7EAEF05F028C089FF87
:100BC8008A8EA00E00D0E82EFDD78A9E1200F2A8C9
:100BD800F0EF05F0F2EF05F06FEF06F0F2A2F7EF95
:100BE80005F0F9EF05F06FEF06F0CCEC08F039EFFF
:100BF80006F0010E196ED7EC08F06EEF06F0030E42
:100C0800196E10EC07F0DAEC08F06EEF06F010EC55
:100C180007F0030E196E6EEF06F0D7EC08F0040E1D
:100C2800196E6EEF06F0D7EC08F0050E196E6EEF30
:100C380006F0D7EC08F0060E196E6EEF06F0D7EC4A
:100C480008F0070E196E6EEF06F0D7EC08F0080EE4
:100C5800196E6EEF06F0D7EC08F0090E196E6EEFFC
:100C680006F0DAEC08F00BEF06F01950226E236A52
:100C78002350000AD8B443EF06F06EEF06F0225076
:100C8800000AD8B4FDEF05F0010AD8B403EF06F066
:100C9800030AD8B40BEF06F0010AD8B411EF06F036
:100CA800070AD8B417EF06F0010AD8B41DEF06F00A
:100CB800030AD8B423EF06F0010AD8B429EF06F0E6
:100CC8000F0AD8B42FEF06F0010AD8B435EF06F0B2
:100CD8006EEF06F0F29212001E6EC580C5B077EF77
:100CE80006F079EF06F072EF06F09E96D00EC96E08
:100CF8009EA681EF06F083EF06F07CEF06F09E9645
:100D0800C5AC89EF06F08BEF06F095EF06F0C584C9
:100D1800C5B491EF06F093EF06F08CEF06F0C2EF42
:100D280006F01EC0C9FF9EA69CEF06F09EEF06F0D7
:100D380097EF06F09E96C5ACA4EF06F0A6EF06F076
:100D4800B0EF06F0C584C5B4ACEF06F0AEEF06F020
:100D5800A7EF06F0C2EF06F01DC0C9FF9EA6B7EFC9
:100D680006F0B9EF06F0B2EF06F09E96C584C5B45A
:100D7800C0EF06F0C2EF06F0BBEF06F0120015EC6C
:100D880004F0020E246E0B5026EC08F0286E590E63
:100D98002864D1EF06F0D3EF06F005EF07F0010E57
:100DA800246E0B5026EC08F0286E230E2864DFEF23
:100DB80006F0E1EF06F0F1EF06F0000E096E020E04
:100DC800246E0B5026EC08F0086E600E246E0B5053
:100DD80010EC08F0086E0DEF07F0010E246E0C50B1
:100DE80026EC08F0096E020E246E0B5026EC08F073
:100DF800086E600E246E0B5010EC08F0086E0DEFB4
:100E080007F00CC009F0020E246E0B5026EC08F017
:100E1800086E010E186E1200BAEC04F0020E1D6E78
:100E28000B5052EC08F0216E590E21641EEF07F0AA
:100E380020EF07F052EF07F0010E1D6E0B5052EC39
:100E480008F0216E230E21642CEF07F02EEF07F037
:100E58003EEF07F0000E096E020E1D6E0B5052ECAD
:100E680008F0086E600E1D6E0B503CEC08F0086E22
:100E78005AEF07F0010E1D6E0C5052EC08F0096E87
:100E8800020E1D6E0B5052EC08F0086E600E1D6EBF
:100E98000B503CEC08F0086E5AEF07F00CC009F054
:100EA800020E1D6E0B5052EC08F0086E010E186E03
:100EB8001200F2AA62EF07F064EF07F0A3EF07F061
:100EC800F2A469EF07F06BEF07F0A3EF07F091EFDB
:100ED80007F0BAEC04F02E500C18D8A476EF07F0FF
:100EE80078EF07F087EF07F02D500B18D8A47FEFA5
:100EF80007F081EF07F087EF07F0010E176E030E7A
:100F0800196EA2EF07F0000E176E000E166EA2EF14
:100F180007F0010E186EA2EF07F019501D6E1E6A39
:100F28001E50000AD8B49BEF07F08DEF07F01D5054
:100F3800020AD8B46DEF07F08DEF07F0F2941200B3
:100F4800266EB9EF07F0000E1C6E000E1B6ED2EF76
:100F580007F0000E1C6E010E1B6ED2EF07F0010E9B
:100F68001C6E000E1B6ED2EF07F02650246E256A09
:100F78002550000AD8B4C3EF07F0D2EF07F0245089
:100F8800000AD8B4A7EF07F0010AD8B4ADEF07F00C
:100F9800030AD8B4B3EF07F0D2EF07F01200A0A20B
:100FA800D8EF07F0DAEF07F0F3EF07F0A1A2DFEFD1
:100FB80007F0E1EF07F0F3EF07F01250D8B4E7EFCE
:100FC80007F0E9EF07F0EFEF07F08290A092000E2C
:100FD800126EF2EF07F08280010E126EA1921200DB
:100FE800BA0EF66E110EF76E000EF86E0900F5CF08
:100FF8002CF00900F5CF2DF00900F5CF2EF000EE0A
:1010080001F01C0EEE6AE806FDE12F902F92000E0B
:10101800F86E000109EF00F0266E2450265C276E5A
:1010280027C025F00F0E2516090E25641EEF08F0BF
:1010380020EF08F024EF08F02750FA0F25EF08F00A
:1010480027501200266E26502424276E27C025F02C
:101058000F0E2516090E256434EF08F036EF08F058
:101068003AEF08F02750060F3BEF08F02750120020
:101078001F6E1D501F5C206E20C01EF00F0E1E1626
:10108800090E1E644AEF08F04CEF08F050EF08F024
:101098002050FA0F51EF08F0205012001F6E1F5019
:1010A8001D24206E20C01EF00F0E1E16090E1E6491
:1010B80060EF08F062EF08F066EF08F02050060FC6
:1010C80067EF08F0205012009DA06DEF08F06FEF59
:1010D80008F078EF08F09EA074EF08F076EF08F0BB
:1010E80078EF08F01A1E9E901200310ECB6E000E9B
:1010F800BD6E190EBE6E9494010ECA6ECA840C0E93
:10110800BD6E00F0000EBE6E1200000E946E180E3A
:101118009412000E926E070E936E949082809494AF
:101128008284949A829A120006005DEC07F068ECBB
:1011380008F0D3EC07F0EBEC05F007EC02F012EC4A
:1011480003F02F921100E20ED31289EC08F0D2ECD2
:1011580008F0BFEC08F0B4EC08F079EC08F01200E5
:10116800F00EF26E020EA06E010E9D6E0F0EF116BD
:10117800180EF06E1200830ED56EB10ECD6E910E64
:10118800B16E1200880E246E880E5FEC05F0120016
:10119800A082000EB36E000EB26E1200090EC86E69
:1011A800280EC66E1200D59ECD801200D58ECD9029
:0511B80012000000120E
:020000040020DA
:08000000FFFFFFFFFFFFFFFF00
:020000040030CA
:0E000000FF08191EFF8180FF0FC00FE00F40A8
:00000001FF
