:020000040000FA
:0400000007EF00F016
:1000080033820DED08F0F1EF07F09BEC08F0B3EC4C
:1000180008F0C80E00D0E82EFDD7CFEF01F0880E0B
:10002800286E880EA4EC04F0C2EC08F00DEF00F086
:100038001BC028F01C50A4EC04F0010EE9EC06F0FB
:100048000DEF00F01BC028F01C50A4EC04F0020EC9
:10005800E9EC06F00DEF00F003000DEF00F00F5093
:10006800D8B439EF00F03BEF00F059EF00F014EC92
:1000780002F032501C18D8A444EF00F046EF00F00C
:1000880053EF00F031501B18D8A44DEF00F04FEF9C
:1000980000F053EF00F0010E0E6E57EF00F0000E67
:1000A8000E6E000E0D6E000E0F6E1BC028F01C5059
:1000B800A4EC04F0000EE9EC06F00E04D8A467EFF7
:1000C80000F069EF00F075EF00F00D50D8A46FEF65
:1000D80000F071EF00F075EF00F00B0E106E0DEFF1
:1000E80000F01C500318D8A47CEF00F07EEF00F05D
:1000F80010EF02F01B500218D8A485EF00F087EF2C
:1001080000F010EF02F0030E106E0DEF00F031C09A
:1001180028F03250A4EC04F0010EE9EC06F00DEFE3
:1001280000F031C028F03250A4EC04F0020EE9ECE3
:1001380006F00DEF00F017C028F01850A4EC04F0FA
:10014800010EE9EC06F00DEF00F017C028F018508A
:10015800A4EC04F0020EE9EC06F00DEF00F014C078
:1001680028F01550A4EC04F0010EE9EC06F00DEFB0
:1001780000F014C028F01550A4EC04F0020EE9ECCD
:1001880006F00DEF00F00F50D8B4CDEF00F0CFEF30
:1001980000F0FCEF00F014EC02F008501A18D8B484
:1001A800D8EF00F0DAEF00F0FAEF00F0010E286E59
:1001B80006503AEC08F02E6E590E2E64E6EF00F069
:1001C800E8EF00F0F2EF00F0010E286E07503AEC6D
:1001D80008F0076E000E066EF8EF00F0010E286EAC
:1001E80006503AEC08F0066E1AC008F0000E0F6EC2
:1001F800A0929D90F298F096F09882900750D8A41B
:1002080008EF01F00AEF01F018EF01F00604D8A496
:1002180010EF01F012EF01F018EF01F0BD98BD9A50
:10022800190EBE6E43EF01F00750D8A41EEF01F07F
:1002380020EF01F02FEF01F0020E0618D8A427EFE7
:1002480001F029EF01F02FEF01F0BD98BD8A250ECE
:10025800BE6E43EF01F00750D8A435EF01F037EF39
:1002680001F03FEF01F0020E06643DEF01F03FEFB1
:1002780001F043EF01F0BD98BD9A320EBE6E000E3C
:10028800E9EC06F006C028F00750A4EC04F018507A
:100298000718D8A452EF01F054EF01F00DEF00F069
:1002A80017500618D8A45BEF01F05DEF01F00DEFD1
:1002B80000F0BD98BD9A000EBE6E000E066E000ED0
:1002C800076E000E086E0C0E106E0DEF00F00F504A
:1002D800D8B471EF01F073EF01F0A0EF01F014EC66
:1002E80002F008501A18D8B47CEF01F07EEF01F044
:1002F8009EEF01F0010E286E04503AEC08F02E6EC5
:10030800590E2E648AEF01F08CEF01F096EF01F0A0
:10031800010E286E05503AEC08F0056E000E046ECA
:100328009CEF01F0010E286E04503AEC08F0046EC0
:100338001AC008F0000E0F6E8290828A04C028F05E
:100348000550A4EC04F015500518D8A4AEEF01F040
:10035800B0EF01F00DEF00F014500418D8A4B7EF77
:1003680001F0B9EF01F00DEF00F0829AA0829D80B4
:10037800F288F086F088000E0E6E010E0D6E08EC05
:1003880006F0000E046E000E056E000E086E040ED8
:10039800106E0DEF00F010502E6E2F6A2F50000ACD
:1003A800D8B4D9EF01F00DEF00F02E50000AD8B400
:1003B80013EF00F0010AD8B41CEF00F0030AD8B418
:1003C80026EF00F0010AD8B430EF00F0070AD8B4DD
:1003D80033EF00F0010AD8B48BEF00F0030AD8B469
:1003E80095EF00F0010AD8B49FEF00F00F0AD8B4D7
:1003F800A9EF00F0010AD8B4B3EF00F0030AD8B4AB
:10040800BDEF00F0010AD8B4C7EF00F0070AD8B46E
:100418006BEF01F00DEF00F00DEF00F007EF00F0CB
:10042800C580C5B01AEF02F01CEF02F015EF02F01C
:100438009E96D00EC96E9EA624EF02F026EF02F01B
:100448001FEF02F09E96C5AC2CEF02F02EEF02F0E3
:1004580038EF02F0C584C5B434EF02F036EF02F08D
:100468002FEF02F0B8EF02F0000EC96E9EA63FEF24
:1004780002F041EF02F03AEF02F09E96C5AC47EF6A
:1004880002F049EF02F053EF02F0C584C5B44FEF14
:1004980002F051EF02F04AEF02F0B8EF02F0C58225
:1004A800C5B259EF02F05BEF02F054EF02F09E96EE
:1004B800D10EC96E9EA663EF02F065EF02F05EEF03
:1004C80002F09E96C5AC6BEF02F06DEF02F077EF8D
:1004D80002F0C584C5B473EF02F075EF02F06EEF59
:1004E80002F0B8EF02F0C586C7A07DEF02F07FEFFB
:1004F80002F078EF02F0C9CF1AF0C59AC588C5B8DE
:1005080088EF02F08AEF02F083EF02F0C586C7A0F9
:1005180090EF02F092EF02F08BEF02F0C9CF1BF0E0
:10052800C59AC588C5B89BEF02F09DEF02F096EF1B
:1005380002F0C586C7A0A3EF02F0A5EF02F09EEF78
:1005480002F0C9CF1CF0C58AC588C5B8AEEF02F065
:10055800B0EF02F0A9EF02F0C584C5B4B6EF02F01F
:10056800B8EF02F0B1EF02F01200C580C5B0BFEFDE
:1005780002F0C1EF02F0BAEF02F09E96D00EC96EFB
:100588009EA6C9EF02F0CBEF02F0C4EF02F09E96F0
:10059800C5ACD1EF02F0D3EF02F0DDEF02F0C58475
:1005A800C5B4D9EF02F0DBEF02F0D4EF02F05DEF53
:1005B80003F0000EC96E9EA6E4EF02F0E6EF02F02B
:1005C800DFEF02F09E96C5ACECEF02F0EEEF02F022
:1005D800F8EF02F0C584C5B4F4EF02F0F6EF02F0CC
:1005E800EFEF02F05DEF03F0C582C5B2FEEF02F057
:1005F80000EF03F0F9EF02F09E96D10EC96E9EA6A9
:1006080008EF03F00AEF03F003EF03F09E96C5AC82
:1006180010EF03F012EF03F01CEF03F0C584C5B42C
:1006280018EF03F01AEF03F013EF03F05DEF03F098
:10063800C586C7A022EF03F024EF03F01DEF03F0F7
:10064800C9CF1AF0C59AC588C5B82DEF03F02FEFAA
:1006580003F028EF03F0C586C7A035EF03F037EFA6
:1006680003F030EF03F0C9CF1BF0C59AC588C5B8B1
:1006780040EF03F042EF03F03BEF03F0C586C7A05D
:1006880048EF03F04AEF03F043EF03F0C9CF1CF043
:10069800C58AC588C5B853EF03F055EF03F04EEF90
:1006A80003F0C584C5B45BEF03F05DEF03F056EFCC
:1006B80003F01200F0A863EF03F065EF03F000EF1A
:1006C80004F0F0A26AEF03F06CEF03F000EF04F01F
:1006D800C8EC08F0CAEF03F01B0E216E000E226E64
:1006E800ADEC07F0000E1D6E000EB5EC05F01BC05A
:1006F8001DF0010EB5EC05F0FFEF03F01C0E216EA6
:10070800000E226E8AEC07F0000E1D6E000EB5EC8E
:1007180005F01CC01DF0020EB5EC05F0FFEF03F06C
:1007280055EC06F0040E106EFFEF03F0310E216E4B
:10073800000E226EADEC07F0FFEF03F0320E216ED3
:10074800000E226E8AEC07F0FFEF03F0170E216E01
:10075800000E226EADEC07F0FFEF03F0180E216ECD
:10076800000E226EADEC07F0FFEF03F0140E216EC1
:10077800000E226EADEC07F0FFEF03F0150E216EB0
:10078800000E226EADEC07F0FFEF03F01050236E61
:10079800246A2450000AD8B4D4EF03F0FFEF03F022
:1007A8002350010AD8B470EF03F0030AD8B482EFDB
:1007B80003F0010AD8B494EF03F0070AD8B4FFEFA6
:1007C80003F0010AD8B49AEF03F0030AD8B4A2EFF1
:1007D80003F0010AD8B4AAEF03F00F0AD8B4B2EFB5
:1007E80003F0010AD8B4BAEF03F0030AD8B4C2EF91
:1007F80003F0FFEF03F0F0921200F0A606EF04F00A
:1008080008EF04F0A3EF04F0F0A00DEF04F00FEFF1
:1008180004F0A3EF04F0C8EC08F06DEF04F01B0E31
:10082800216E000E226E66EC07F0000E1D6E000EA3
:10083800B5EC05F01BC01DF0010EB5EC05F0A2EFFC
:1008480004F01C0E216E000E226E42EC07F0000E22
:100858001D6E000EB5EC05F01CC01DF0020EB5ECC7
:1008680005F0A2EF04F055EC06F0040E106EA2EFAE
:1008780004F0310E216E000E226E66EC07F0A2EF36
:1008880004F0320E216E000E226E42EC07F0A2EF49
:1008980004F0170E216E000E226E66EC07F0A2EF30
:1008A80004F0180E216E000E226E66EC07F0A2EF1F
:1008B80004F0140E216E000E226E66EC07F0A2EF13
:1008C80004F0150E216E000E226E66EC07F0A2EF02
:1008D80004F01050246E256A2550000AD8B477EF2A
:1008E80004F0A2EF04F02450010AD8B413EF04F086
:1008F800030AD8B425EF04F0010AD8B437EF04F09E
:10090800070AD8B4A2EF04F0010AD8B43DEF04F006
:10091800030AD8B445EF04F0010AD8B44DEF04F047
:100928000F0AD8B455EF04F0010AD8B45DEF04F00B
:10093800030AD8B465EF04F0A2EF04F0F0901200B7
:100948002D6E2D380F0B0F0B296E2D500F0B2A6EA5
:1009580028380F0B0F0B2B6E28500F0B2C6E1350D3
:10096800D8B4B9EF04F0BBEF04F0CAEF04F01150AB
:10097800D8B4C1EF04F0C3EF04F0CAEF04F0895013
:10098800A00E00D0E82EFDD7D2EF04F029C089FFD1
:100998008A88A00E00D0E82EFDD78A981350D8B4C4
:1009A800D8EF04F0DAEF04F0E9EF04F01150D8B40E
:1009B800E0EF04F0E2EF04F0E9EF04F08950A00E54
:1009C80000D0E82EFDD7F1EF04F02AC089FF8A8A0B
:1009D800A00E00D0E82EFDD78A9A1250D8B4F7EFAF
:1009E80004F0F9EF04F008EF05F01150D8B4FFEF68
:1009F80004F001EF05F008EF05F08950A00E00D0D3
:100A0800E82EFDD710EF05F02BC089FF8A8CA00EC9
:100A180000D0E82EFDD78A9C1250D8B416EF05F006
:100A280018EF05F027EF05F01150D8B41EEF05F0C8
:100A380020EF05F027EF05F08950A00E00D0E82E32
:100A4800FDD72FEF05F02CC089FF8A8EA00E00D0AD
:100A5800E82EFDD78A9E1200F2A835EF05F037EF91
:100A680005F0B4EF05F0F2A23CEF05F03EEF05F01B
:100A7800B4EF05F0C8EC08F07EEF05F0020E106E3A
:100A8800D3EC08F0B3EF05F0040E106E55EC06F049
:100A9800D6EC08F0B3EF05F055EC06F0040E106E36
:100AA800B3EF05F0D3EC08F0050E106EB3EF05F0C8
:100AB800D3EC08F0060E106EB3EF05F0D3EC08F097
:100AC800070E106EB3EF05F0D3EC08F0080E106EA9
:100AD800B3EF05F0D3EC08F0090E106EB3EF05F094
:100AE800D3EC08F00A0E106EB3EF05F0D6EC08F060
:100AF80050EF05F01050226E236A2350000AD8B434
:100B080088EF05F0B3EF05F02250010AD8B442EFA0
:100B180005F0030AD8B448EF05F0010AD8B450EF3D
:100B280005F0070AD8B456EF05F0010AD8B45CEF0F
:100B380005F0030AD8B462EF05F0010AD8B468EFEB
:100B480005F00F0AD8B46EEF05F0010AD8B474EFB7
:100B580005F0030AD8B47AEF05F0B3EF05F0F29286
:100B680012001E6EC580C5B0BCEF05F0BEEF05F0E3
:100B7800B7EF05F09E96D00EC96E9EA6C6EF05F09B
:100B8800C8EF05F0C1EF05F09E96C5ACCEEF05F0B5
:100B9800D0EF05F0DAEF05F0C584C5B4D6EF05F05F
:100BA800D8EF05F0D1EF05F007EF06F01EC0C9FF3A
:100BB8009EA6E1EF05F0E3EF05F0DCEF05F09E9669
:100BC800C5ACE9EF05F0EBEF05F0F5EF05F0C584EE
:100BD800C5B4F1EF05F0F3EF05F0ECEF05F007EF22
:100BE80006F01DC0C9FF9EA6FCEF05F0FEEF05F05C
:100BF800F7EF05F09E96C584C5B405EF06F007EF3C
:100C080006F000EF06F0120014EC02F0020E286E57
:100C18001B503AEC08F02C6E590E2C6416EF06F0B7
:100C280018EF06F04AEF06F0010E286E1B503AEC5A
:100C380008F02C6E230E2C6424EF06F026EF06F045
:100C480036EF06F0000E036E020E286E1B503AECCB
:100C580008F0026E600E286E1B5024EC08F0026E3D
:100C680052EF06F0010E286E1C503AEC08F0036EA5
:100C7800020E286E1B503AEC08F0026E600E286EC9
:100C88001B5024EC08F0026E52EF06F01CC003F073
:100C9800020E286E1B503AEC08F0026E010E0F6E21
:100CA8001200B9EC02F0020E1D6E1B5066EC08F043
:100CB800216E590E216463EF06F065EF06F097EF99
:100CC80006F0010E1D6E1B5066EC08F0216E230E17
:100CD800216471EF06F073EF06F083EF06F0000E63
:100CE800036E020E1D6E1B5066EC08F0026E600E5D
:100CF8001D6E1B5050EC08F0026E9FEF06F0010EBF
:100D08001D6E1C5066EC08F0036E020E1D6E1B5023
:100D180066EC08F0026E600E1D6E1B5050EC08F079
:100D2800026E9FEF06F01CC003F0020E1D6E1B50F2
:100D380066EC08F0026E010E0F6E1200F2AAA7EF21
:100D480006F0A9EF06F0E8EF06F0F2A4AEEF06F021
:100D5800B0EF06F0E8EF06F0D6EF06F0B9EC02F0D7
:100D680032501C18D8A4BBEF06F0BDEF06F0CCEF4C
:100D780006F031501B18D8A4C4EF06F0C6EF06F0F1
:100D8800CCEF06F0010E0E6E040E106EE7EF06F0C3
:100D9800000E0E6E000E0D6EE7EF06F0010E0F6EE0
:100DA800E7EF06F010501D6E1E6A1E50000AD8B4F8
:100DB800E0EF06F0D2EF06F01D50030AD8B4B2EF08
:100DC80006F0D2EF06F0F29412002A6EFEEF06F05B
:100DD800000E136E000E126E17EF07F0000E136E62
:100DE800010E126E17EF07F0010E136E000E126E51
:100DF80017EF07F02A50286E296A2950000AD8B43C
:100E080008EF07F017EF07F02850000AD8B4ECEF06
:100E180006F0010AD8B4F2EF06F0030AD8B4F8EFE6
:100E280006F017EF07F012009DA01DEF07F01FEF67
:100E380007F041EF07F09EA024EF07F026EF07F038
:100E480041EF07F02FEF07F0010E106E40EF07F0AB
:100E5800111E40EF07F010501D6E1E6A1E50000A4A
:100E6800D8B439EF07F02CEF07F01D50000AD8B4BA
:100E780028EF07F02CEF07F09E90120021C0D9FF51
:100E880022C0DAFF230EDE18D8A44DEF07F04FEF8B
:100E980007F057EF07F021C0D9FF22C0DAFF000E94
:100EA800DF6E65EF07F0010E1D6E21C0D9FF22C06D
:100EB800DAFFDF5066EC08F021C0D9FF22C0DAFF64
:100EC800DF6E120021C0D9FF22C0DAFF590EDE18EA
:100ED800D8A471EF07F073EF07F07BEF07F021C09C
:100EE800D9FF22C0DAFF000EDF6E89EF07F0010E8E
:100EF8001D6E21C0D9FF22C0DAFFDF5066EC08F072
:100F080021C0D9FF22C0DAFFDF6E120021C0D9FF4D
:100F180022C0DAFFDF50D8A494EF07F096EF07F06D
:100F28009EEF07F021C0D9FF22C0DAFF230EDF6E43
:100F3800ACEF07F0010E1D6E21C0D9FF22C0DAFF09
:100F4800DF5050EC08F021C0D9FF22C0DAFFDF6E75
:100F5800120021C0D9FF22C0DAFFDF50D8A4B7EFB2
:100F680007F0B9EF07F0C1EF07F021C0D9FF22C0A1
:100F7800DAFF590EDF6ECFEF07F0010E1D6E21C0AC
:100F8800D9FF22C0DAFFDF5050EC08F021C0D9FFAA
:100F980022C0DAFFDF6E1200A0A2D5EF07F0D7EF6C
:100FA80007F0F0EF07F0A1A2DCEF07F0DEEF07F0A3
:100FB800F0EF07F00950D8B4E4EF07F0E6EF07F0D8
:100FC800ECEF07F08290A092000E096EEFEF07F0A9
:100FD8008280010E096EA1921200B20EF66E110EF9
:100FE800F76E000EF86E0900F5CF30F00900F5CF66
:100FF80031F00900F5CF32F000EE01F01C0EEE6A78
:10100800E806FDE133903392000EF86E000109EF17
:1010180000F00600D9CF26F0DACF27F0A2EC06F0D0
:1010280018EC07F0D0EC07F030EC05F001EC04F018
:101038005EEC03F027C0DAFF26C0D9FF3392110017
:101048002A6E28502A5C2B6E2BC029F00F0E291609
:10105800090E296432EF08F034EF08F038EF08F091
:101068002B50FA0F39EF08F02B5012002A6E2A5035
:1010780028242B6E2BC029F00F0E2916090E29647F
:1010880048EF08F04AEF08F04EEF08F02B50060F33
:101098004FEF08F02B5012001F6E1D501F5C206E82
:1010A80020C01EF00F0E1E16090E1E645EEF08F01B
:1010B80060EF08F064EF08F02050FA0F65EF08F0D1
:1010C800205012001F6E1F501D24206E20C01EF0DD
:1010D8000F0E1E16090E1E6474EF08F076EF08F066
:1010E8007AEF08F02050060F7BEF08F0205012002E
:1010F800310ECB6E000EBD6E190EBE6E9494010EAD
:10110800CA6ECA840C0EBD6E00F0000EBE6E1200D0
:10111800000E946E180E9412000E926E070E936EC7
:101128009490828094948284949A829A1200E20E17
:10113800D3128CEC08F0CEEC08F0BBEC08F0A8EC6D
:1011480008F07CEC08F01200F00EF26E020EA06EB1
:10115800010E9D6E0F0EF116180EF06E12000D0E98
:10116800286EFC0EE82EFED7282EFCD71200830E20
:10117800D56EB10ECD6E910EB16E1200A082000E2A
:10118800B36E000EB26E1200A082000EB36E000E97
:10119800B26E1200090EC86E280EC66E1200D59ED9
:0D11A800CD801200D58ECD901200000012F7
:020000040020DA
:08000000FFFFFFFFFFFFFFFF00
:020000040030CA
:0E000000FF08191EFF8180FF0FC00FE00F40A8
:00000001FF
