:020000040000FA
:0400000007EF00F016
:10000800338226ED08F00AEF08F0B4EC08F0CCECE7
:1000180008F0C80E00D0E82EFDD7CBEF01F0880E0F
:10002800286E880EA0EC04F0DBEC08F00DEF00F071
:100038001BC028F01C50A0EC04F0010EE5EC06F003
:100048000DEF00F01BC028F01C50A0EC04F0020ECD
:10005800E5EC06F00DEF00F003000DEF00F00F5097
:10006800D8B439EF00F03BEF00F059EF00F010EC96
:1000780002F032501C18D8A444EF00F046EF00F00C
:1000880053EF00F031501B18D8A44DEF00F04FEF9C
:1000980000F053EF00F0010E0E6E57EF00F0000E67
:1000A8000E6E000E0D6E000E0F6E1BC028F01C5059
:1000B800A0EC04F0000EE5EC06F00E04D8A467EFFF
:1000C80000F069EF00F075EF00F00D50D8A46FEF65
:1000D80000F071EF00F075EF00F00B0E106E0DEFF1
:1000E80000F01C500318D8A47CEF00F07EEF00F05D
:1000F8000CEF02F01B500218D8A485EF00F087EF30
:1001080000F00CEF02F0030E106E0DEF00F031C09E
:1001180028F03250A0EC04F0010EE5EC06F00DEFEB
:1001280000F031C028F03250A0EC04F0020EE5ECEB
:1001380006F00DEF00F017C028F01850A0EC04F0FE
:10014800010EE5EC06F00DEF00F017C028F018508E
:10015800A0EC04F0020EE5EC06F00DEF00F014C080
:1001680028F01550A0EC04F0010EE5EC06F00DEFB8
:1001780000F014C028F01550A0EC04F0020EE5ECD5
:1001880006F00DEF00F00F50D8B4CDEF00F0CFEF30
:1001980000F0FCEF00F010EC02F008501A18D8B488
:1001A800D8EF00F0DAEF00F0FAEF00F0010E286E59
:1001B800065053EC08F02E6E590E2E64E6EF00F050
:1001C800E8EF00F0F2EF00F0010E286E075053EC54
:1001D80008F0076E000E066EF8EF00F0010E286EAC
:1001E800065053EC08F0066E1AC008F0000E0F6EA9
:1001F800A0929D90F298F096F09882900750D8A41B
:1002080008EF01F00AEF01F017EF01F00604D8A497
:1002180010EF01F012EF01F017EF01F0640EEDECB2
:1002280007F040EF01F00750D8A41DEF01F01FEFD1
:1002380001F02DEF01F0020E0618D8A426EF01F008
:1002480028EF01F02DEF01F0960EEDEC07F040EFEE
:1002580001F00750D8A433EF01F035EF01F03DEF7E
:1002680001F0020E06643BEF01F03DEF01F040EFB4
:1002780001F0C80EEDEC07F0000EE5EC06F006C044
:1002880028F00750A0EC04F018500718D8A44FEF36
:1002980001F051EF01F00DEF00F017500618D8A447
:1002A80058EF01F05AEF01F00DEF00F0000EEDEC01
:1002B80007F0000E066E000E076E000E086E0C0E9C
:1002C800106E0DEF00F00F50D8B46DEF01F06FEF26
:1002D80001F09CEF01F010EC02F008501A18D8B4A5
:1002E80078EF01F07AEF01F09AEF01F0010E286E35
:1002F800045053EC08F02E6E590E2E6486EF01F070
:1003080088EF01F092EF01F0010E286E055053ECD2
:1003180008F0056E000E046E98EF01F0010E286ECD
:10032800045053EC08F0046E1AC008F0000E0F6E6B
:100338008290828A04C028F00550A0EC04F0155081
:100348000518D8A4AAEF01F0ACEF01F00DEF00F00A
:1003580014500418D8A4B3EF01F0B5EF01F00DEF75
:1003680000F0829AA0829D80F288F086F088000EC4
:100378000E6E010E0D6E04EC06F0000E046E000EFB
:10038800056E000E086E040E106E0DEF00F0105092
:100398002E6E2F6A2F50000AD8B4D5EF01F00DEF5A
:1003A80000F02E50000AD8B413EF00F0010AD8B4B8
:1003B8001CEF00F0030AD8B426EF00F0010AD8B405
:1003C80030EF00F0070AD8B433EF00F0010AD8B4D0
:1003D8008BEF00F0030AD8B495EF00F0010AD8B407
:1003E8009FEF00F00F0AD8B4A9EF00F0010AD8B4C3
:1003F800B3EF00F0030AD8B4BDEF00F0010AD8B497
:10040800C7EF00F0070AD8B467EF01F00DEF00F06E
:100418000DEF00F007EF00F0C580C5B016EF02F051
:1004280018EF02F011EF02F09E96D00EC96E9EA64C
:1004380020EF02F022EF02F01BEF02F09E96C5AC0F
:1004480028EF02F02AEF02F034EF02F0C584C5B4B9
:1004580030EF02F032EF02F02BEF02F0B4EF02F0CF
:10046800000EC96E9EA63BEF02F03DEF02F036EF9C
:1004780002F09E96C5AC43EF02F045EF02F04FEF55
:1004880002F0C584C5B44BEF02F04DEF02F046EF21
:1004980002F0B4EF02F0C582C5B255EF02F057EF93
:1004A80002F050EF02F09E96D10EC96E9EA65FEF45
:1004B80002F061EF02F05AEF02F09E96C5AC67EFCA
:1004C80002F069EF02F073EF02F0C584C5B46FEF74
:1004D80002F071EF02F06AEF02F0B4EF02F0C586A5
:1004E800C7A079EF02F07BEF02F074EF02F0C9CFFA
:1004F8001AF0C59AC588C5B884EF02F086EF02F0F5
:100508007FEF02F0C586C7A08CEF02F08EEF02F0F5
:1005180087EF02F0C9CF1BF0C59AC588C5B897EF19
:1005280002F099EF02F092EF02F0C586C7A09FEFA4
:1005380002F0A1EF02F09AEF02F0C9CF1CF0C58AD1
:10054800C588C5B8AAEF02F0ACEF02F0A5EF02F03B
:10055800C584C5B4B2EF02F0B4EF02F0ADEF02F01B
:100568001200C580C5B0BBEF02F0BDEF02F0B6EFD8
:1005780002F09E96D00EC96E9EA6C5EF02F0C7EF98
:1005880002F0C0EF02F09E96C5ACCDEF02F0CFEFBF
:1005980002F0D9EF02F0C584C5B4D5EF02F0D7EF69
:1005A80002F0D0EF02F059EF03F0000EC96E9EA6DC
:1005B800E0EF02F0E2EF02F0DBEF02F09E96C5AC4E
:1005C800E8EF02F0EAEF02F0F4EF02F0C584C5B4F8
:1005D800F0EF02F0F2EF02F0EBEF02F059EF03F068
:1005E800C582C5B2FAEF02F0FCEF02F0F5EF02F0B7
:1005F8009E96D10EC96E9EA604EF03F006EF03F097
:10060800FFEF02F09E96C5AC0CEF03F00EEF03F07F
:1006180018EF03F0C584C5B414EF03F016EF03F028
:100628000FEF03F059EF03F0C586C7A01EEF03F0E4
:1006380020EF03F019EF03F0C9CF1AF0C59AC58867
:10064800C5B829EF03F02BEF03F024EF03F0C586BC
:10065800C7A031EF03F033EF03F02CEF03F0C9CF5D
:100668001BF0C59AC588C5B83CEF03F03EEF03F010
:1006780037EF03F0C586C7A044EF03F046EF03F059
:100688003FEF03F0C9CF1CF0C58AC588C5B84FEF46
:1006980003F051EF03F04AEF03F0C584C5B457EFF8
:1006A80003F059EF03F052EF03F01200F0A85FEFE8
:1006B80003F061EF03F0FCEF03F0F0A266EF03F044
:1006C80068EF03F0FCEF03F0E1EC08F0C6EF03F08D
:1006D8001B0E216E000E226EA9EC07F0000E1D6E97
:1006E800000EB1EC05F01BC01DF0010EB1EC05F0D9
:1006F800FBEF03F01C0E216E000E226E86EC07F055
:10070800000E1D6E000EB1EC05F01CC01DF0020EAF
:10071800B1EC05F0FBEF03F051EC06F0040E106E9F
:10072800FBEF03F0310E216E000E226EA9EC07F0EC
:10073800FBEF03F0320E216E000E226E86EC07F0FE
:10074800FBEF03F0170E216E000E226EA9EC07F0E6
:10075800FBEF03F0180E216E000E226EA9EC07F0D5
:10076800FBEF03F0140E216E000E226EA9EC07F0C9
:10077800FBEF03F0150E216E000E226EA9EC07F0B8
:10078800FBEF03F01050236E246A2450000AD8B4FB
:10079800D0EF03F0FBEF03F02350010AD8B46CEF5D
:1007A80003F0030AD8B47EEF03F0010AD8B490EF3F
:1007B80003F0070AD8B4FBEF03F0010AD8B496EFA8
:1007C80003F0030AD8B49EEF03F0010AD8B4A6EFE9
:1007D80003F00F0AD8B4AEEF03F0010AD8B4B6EFAD
:1007E80003F0030AD8B4BEEF03F0FBEF03F0F09276
:1007F8001200F0A602EF04F004EF04F09FEF04F0FB
:10080800F0A009EF04F00BEF04F09FEF04F0E1EC27
:1008180008F069EF04F01B0E216E000E226E62ECE8
:1008280007F0000E1D6E000EB1EC05F01BC01DF0A8
:10083800010EB1EC05F09EEF04F01C0E216E000EC7
:10084800226E3EEC07F0000E1D6E000EB1EC05F0B6
:100858001CC01DF0020EB1EC05F09EEF04F051EC47
:1008680006F0040E106E9EEF04F0310E216E000E9D
:10087800226E62EC07F09EEF04F0320E216E000E3D
:10088800226E3EEC07F09EEF04F0170E216E000E6C
:10089800226E62EC07F09EEF04F0180E216E000E37
:1008A800226E62EC07F09EEF04F0140E216E000E2B
:1008B800226E62EC07F09EEF04F0150E216E000E1A
:1008C800226E62EC07F09EEF04F01050246E256A49
:1008D8002550000AD8B473EF04F09EEF04F02450BA
:1008E800010AD8B40FEF04F0030AD8B421EF04F0DA
:1008F800010AD8B433EF04F0070AD8B49EEF04F025
:10090800010AD8B439EF04F0030AD8B441EF04F06F
:10091800010AD8B449EF04F00F0AD8B451EF04F033
:10092800010AD8B459EF04F0030AD8B461EF04F00F
:100938009EEF04F0F09012002D6E2D380F0B0F0B68
:10094800296E2D500F0B2A6E28380F0B0F0B2B6EAC
:1009580028500F0B2C6E1350D8B4B5EF04F0B7EF36
:1009680004F0C6EF04F01150D8B4BDEF04F0BFEFA7
:1009780004F0C6EF04F08950A00E00D0E82EFDD791
:10098800CEEF04F029C089FF8A88A00E00D0E82E97
:10099800FDD78A981350D8B4D4EF04F0D6EF04F0FA
:1009A800E5EF04F01150D8B4DCEF04F0DEEF04F00A
:1009B800E5EF04F08950A00E00D0E82EFDD7EDEF4A
:1009C80004F02AC089FF8A8AA00E00D0E82EFDD73D
:1009D8008A9A1250D8B4F3EF04F0F5EF04F004EF5C
:1009E80005F01150D8B4FBEF04F0FDEF04F004EF6C
:1009F80005F08950A00E00D0E82EFDD70CEF05F0C9
:100A08002BC089FF8A8CA00E00D0E82EFDD78A9CC7
:100A18001250D8B412EF05F014EF05F023EF05F0EB
:100A28001150D8B41AEF05F01CEF05F023EF05F0CC
:100A38008950A00E00D0E82EFDD72BEF05F02CC072
:100A480089FF8A8EA00E00D0E82EFDD78A9E12005C
:100A5800F2A831EF05F033EF05F0B0EF05F0F2A2A0
:100A680038EF05F03AEF05F0B0EF05F0E1EC08F0EB
:100A78007AEF05F0020E106EECEC08F0AFEF05F01F
:100A8800040E106E51EC06F0EFEC08F0AFEF05F035
:100A980051EC06F0040E106EAFEF05F0ECEC08F028
:100AA800050E106EAFEF05F0ECEC08F0060E106EB8
:100AB800AFEF05F0ECEC08F0070E106EAFEF05F0A5
:100AC800ECEC08F0080E106EAFEF05F0ECEC08F057
:100AD800090E106EAFEF05F0ECEC08F00A0E106E80
:100AE800AFEF05F0EFEC08F04CEF05F01050226E78
:100AF800236A2350000AD8B484EF05F0AFEF05F05D
:100B08002250010AD8B43EEF05F0030AD8B444EFE6
:100B180005F0010AD8B44CEF05F0070AD8B452EF33
:100B280005F0010AD8B458EF05F0030AD8B45EEF0F
:100B380005F0010AD8B464EF05F00F0AD8B46AEFDB
:100B480005F0010AD8B470EF05F0030AD8B476EFBF
:100B580005F0AFEF05F0F29212001E6EC580C5B029
:100B6800B8EF05F0BAEF05F0B3EF05F09E96D00E9A
:100B7800C96E9EA6C2EF05F0C4EF05F0BDEF05F003
:100B88009E96C5ACCAEF05F0CCEF05F0D6EF05F0A0
:100B9800C584C5B4D2EF05F0D4EF05F0CDEF05F06C
:100BA80003EF06F01EC0C9FF9EA6DDEF05F0DFEFDC
:100BB80005F0D8EF05F09E96C5ACE5EF05F0E7EF38
:100BC80005F0F1EF05F0C584C5B4EDEF05F0EFEFE2
:100BD80005F0E8EF05F003EF06F01DC0C9FF9EA67B
:100BE800F8EF05F0FAEF05F0F3EF05F09E96C584EF
:100BF800C5B401EF06F003EF06F0FCEF05F01200B4
:100C080010EC02F0020E286E1B5053EC08F02C6E0C
:100C1800590E2C6412EF06F014EF06F046EF06F0BA
:100C2800010E286E1B5053EC08F02C6E230E2C641A
:100C380020EF06F022EF06F032EF06F0000E036E0A
:100C4800020E286E1B5053EC08F0026E600E286EE0
:100C58001B503DEC08F0026E4EEF06F0010E286EB8
:100C68001C5053EC08F0036E020E286E1B5053EC18
:100C780008F0026E600E286E1B503DEC08F0026E04
:100C88004EEF06F01CC003F0020E286E1B5053EC0A
:100C980008F0026E010E0F6E1200B5EC02F0020EA3
:100CA8001D6E1B507FEC08F0216E590E21645FEF1A
:100CB80006F061EF06F093EF06F0010E1D6E1B5073
:100CC8007FEC08F0216E230E21646DEF06F06FEFC4
:100CD80006F07FEF06F0000E036E020E1D6E1B502D
:100CE8007FEC08F0026E600E1D6E1B5069EC08F078
:100CF800026E9BEF06F0010E1D6E1C507FEC08F093
:100D0800036E020E1D6E1B507FEC08F0026E600E23
:100D18001D6E1B5069EC08F0026E9BEF06F01CC0BC
:100D280003F0020E1D6E1B507FEC08F0026E010EE0
:100D38000F6E1200F2AAA3EF06F0A5EF06F0E4EF9B
:100D480006F0F2A4AAEF06F0ACEF06F0E4EF06F026
:100D5800D2EF06F0B5EC02F032501C18D8A4B7EF69
:100D680006F0B9EF06F0C8EF06F031501B18D8A40A
:100D7800C0EF06F0C2EF06F0C8EF06F0010E0E6EE7
:100D8800040E106EE3EF06F0000E0E6E000E0D6EF0
:100D9800E3EF06F0010E0F6EE3EF06F010501D6E44
:100DA8001E6A1E50000AD8B4DCEF06F0CEEF06F03B
:100DB8001D50030AD8B4AEEF06F0CEEF06F0F29459
:100DC80012002A6EFAEF06F0000E136E000E126E75
:100DD80013EF07F0000E136E010E126E13EF07F0FB
:100DE800010E136E000E126E13EF07F02A50286ED4
:100DF800296A2950000AD8B404EF07F013EF07F066
:100E08002850000AD8B4E8EF06F0010AD8B4EEEF8B
:100E180006F0030AD8B4F4EF06F013EF07F0120057
:100E28009DA019EF07F01BEF07F03DEF07F09EA01C
:100E380020EF07F022EF07F03DEF07F02BEF07F068
:100E4800010E106E3CEF07F0111E3CEF07F010503A
:100E58001D6E1E6A1E50000AD8B435EF07F028EF41
:100E680007F01D50000AD8B424EF07F028EF07F068
:100E78009E90120021C0D9FF22C0DAFF230EDE188F
:100E8800D8A449EF07F04BEF07F053EF07F021C064
:100E9800D9FF22C0DAFF000EDF6E61EF07F0010E06
:100EA8001D6E21C0D9FF22C0DAFFDF507FEC08F0A9
:100EB80021C0D9FF22C0DAFFDF6E120021C0D9FF9E
:100EC80022C0DAFF590EDE18D8A46DEF07F06FEFD5
:100ED80007F077EF07F021C0D9FF22C0DAFF000E34
:100EE800DF6E85EF07F0010E1D6E21C0D9FF22C00D
:100EF800DAFFDF507FEC08F021C0D9FF22C0DAFF0B
:100F0800DF6E120021C0D9FF22C0DAFFDF50D8A45B
:100F180090EF07F092EF07F09AEF07F021C0D9FFA2
:100F280022C0DAFF230EDF6EA8EF07F0010E1D6E58
:100F380021C0D9FF22C0DAFFDF5069EC08F021C0D8
:100F4800D9FF22C0DAFFDF6E120021C0D9FF22C00C
:100F5800DAFFDF50D8A4B3EF07F0B5EF07F0BDEF25
:100F680007F021C0D9FF22C0DAFF590EDF6ECBEFA0
:100F780007F0010E1D6E21C0D9FF22C0DAFFDF5035
:100F880069EC08F021C0D9FF22C0DAFFDF6E120039
:100F9800A0A2D1EF07F0D3EF07F0ECEF07F0A1A282
:100FA800D8EF07F0DAEF07F0ECEF07F00950D8B404
:100FB800E0EF07F0E2EF07F0E8EF07F08290A09289
:100FC800000E096EEBEF07F08280010E096EA19208
:100FD8001200296E29C028F0010E2816283ABD50A3
:100FE8002818EF0B2818BD6E29C028F0D890283291
:100FF800010E2816283A2846BD502818DF0B281855
:10100800BD6E2940E8423F0BBE6E1200E40EF66E3C
:10101800110EF76E000EF86E0900F5CF30F00900DA
:10102800F5CF31F00900F5CF32F000EE01F01C0EDB
:10103800EE6AE806FDE133903392000EF86E000187
:1010480009EF00F00600D9CF26F0DACF27F09EECA2
:1010580006F014EC07F0CCEC07F02CEC05F0FDECF6
:1010680003F05AEC03F027C0DAFF26C0D9FF339209
:1010780011002A6E28502A5C2B6E2BC029F00F0E07
:101088002916090E29644BEF08F04DEF08F051EFCF
:1010980008F02B50FA0F52EF08F02B5012002A6E6E
:1010A8002A5028242B6E2BC029F00F0E2916090E62
:1010B800296461EF08F063EF08F067EF08F02B5040
:1010C800060F68EF08F02B5012001F6E1D501F5CB2
:1010D800206E20C01EF00F0E1E16090E1E6477EF3C
:1010E80008F079EF08F07DEF08F02050FA0F7EEF56
:1010F80008F0205012001F6E1F501D24206E20C0C3
:101108001EF00F0E1E16090E1E648DEF08F08FEFED
:1011180008F093EF08F02050060F94EF08F02050E5
:101128001200310ECB6E000EBD6E190EBE6E949479
:10113800010ECA6ECA840C0EBD6E00F0000EBE6EA3
:101148001200000E946E180E9412000E926E070E86
:10115800936E9490828094948284949A829A1200D6
:10116800E20ED312A5EC08F0E7EC08F0D4EC08F096
:10117800C1EC08F095EC08F01200F00EF26E020EC9
:10118800A06E010E9D6E0F0EF116180EF06E120075
:101198000D0E286EFC0EE82EFED7282EFCD7120066
:1011A800830ED56EB10ECD6E910EB16E1200A08277
:1011B800000EB36E000EB26E1200A082000EB36E67
:1011C800000EB26E1200090EC86E280EC66E12000E
:0F11D800D59ECD801200D58ECD90120000001252
:020000040020DA
:08000000FFFFFFFFFFFFFFFF00
:020000040030CA
:0E000000FF08191EFF8180FF0FC00FE00F40A8
:00000001FF
