:020000040000FA
:0400000007EF00F016
:10000800348241ED08F0ECEF07F0CFEC08F0E7ECB4
:1000180008F0C80E00D0E82EFDD78AEF01F0880E50
:10002800286E880E5FEC04F0FCEC08F00DEF00F091
:100038001BC028F01C505FEC04F0010EE4EC06F045
:100048000DEF00F01BC028F01C505FEC04F0020E0E
:10005800E4EC06F00DEF00F003000DEF00F00F5098
:10006800D8B439EF00F03BEF00F059EF00F0CFECD7
:1000780001F033501C18D8A444EF00F046EF00F00C
:1000880053EF00F032501B18D8A44DEF00F04FEF9B
:1000980000F053EF00F0010E0E6E57EF00F0000E67
:1000A8000E6E000E0D6E000E0F6E1BC028F01C5059
:1000B8005FEC04F0000EE4EC06F00E04D8A467EF41
:1000C80000F069EF00F075EF00F00D50D8A46FEF65
:1000D80000F071EF00F075EF00F00B0E106E0DEFF1
:1000E80000F01C500318D8A47CEF00F07EEF00F05D
:1000F800CBEF01F01B500218D8A485EF00F087EF72
:1001080000F0CBEF01F0030E106E0DEF00F032C0DF
:1001180028F033505FEC04F0010EE4EC06F00DEF2C
:1001280000F032C028F033505FEC04F0020EE4EC2B
:1001380006F00DEF00F017C028F018505FEC04F03F
:10014800010EE4EC06F00DEF00F017C028F018508F
:100158005FEC04F0020EE4EC06F00DEF00F014C0C2
:1001680028F015505FEC04F0010EE4EC06F00DEFFA
:1001780000F014C028F015505FEC04F0020EE4EC17
:1001880006F00DEF00F00F50D8B4CDEF00F0CFEF30
:1001980000F0FCEF00F0CFEC01F008501A18D8B4CA
:1001A800D8EF00F0DAEF00F0FAEF00F0010E286E59
:1001B80006506EEC08F02E6E590E2E64E6EF00F035
:1001C800E8EF00F0F2EF00F0010E286E07506EEC39
:1001D80008F0076E000E066EF8EF00F0010E286EAC
:1001E80006506EEC08F0066E1AC008F0000E0F6E8E
:1001F800000E26EC08F08290A4EC06F0000EE4EC69
:1002080006F006C028F007505FEC04F018500718F5
:10021800D8A411EF01F013EF01F00DEF00F0175023
:100228000618D8A41AEF01F01CEF01F00DEF00F04A
:10023800F6EC08F0000E066E000E076E000E086E53
:100248000C0E106E0DEF00F00F50D8B42EEF01F029
:1002580030EF01F05DEF01F0CFEC01F008501A1813
:10026800D8B439EF01F03BEF01F05BEF01F0010E7C
:10027800286E04506EEC08F02E6E590E2E6447EF6F
:1002880001F049EF01F053EF01F0010E286E05501F
:100298006EEC08F0056E000E046E59EF01F0010EC9
:1002A800286E04506EEC08F0046E1AC008F0000EB8
:1002B8000F6E8290828A04C028F005505FEC04F02B
:1002C80015500518D8A46BEF01F06DEF01F00DEF94
:1002D80000F014500418D8A474EF01F076EF01F080
:1002E8000DEF00F0829A010E26EC08F0000E0E6E5B
:1002F800010E0D6EC3EC05F0000E046E000E056EC7
:10030800000E086E040E106E0DEF00F010502E6EE9
:100318002F6A2F50000AD8B494EF01F00DEF00F0C7
:100328002E50000AD8B413EF00F0010AD8B41CEF1D
:1003380000F0030AD8B426EF00F0010AD8B430EF71
:1003480000F0070AD8B433EF00F0010AD8B48BEFF5
:1003580000F0030AD8B495EF00F0010AD8B49FEF73
:1003680000F00F0AD8B4A9EF00F0010AD8B4B3EF2F
:1003780000F0030AD8B4BDEF00F0010AD8B4C7EF03
:1003880000F0070AD8B428EF01F00DEF00F00DEFE8
:1003980000F007EF00F0C580C5B0D5EF01F0D7EF4A
:1003A80001F0D0EF01F09E96D00EC96E9EA6DFEF49
:1003B80001F0E1EF01F0DAEF01F09E96C5ACE7EF4E
:1003C80001F0E9EF01F0F3EF01F0C584C5B4EFEFF8
:1003D80001F0F1EF01F0EAEF01F073EF02F0000E27
:1003E800C96E9EA6FAEF01F0FCEF01F0F5EF01F0FF
:1003F8009E96C5AC02EF02F004EF02F00EEF02F099
:10040800C584C5B40AEF02F00CEF02F005EF02F064
:1004180073EF02F0C582C5B214EF02F016EF02F0D6
:100428000FEF02F09E96D10EC96E9EA61EEF02F047
:1004380020EF02F019EF02F09E96C5AC26EF02F00D
:1004480028EF02F032EF02F0C584C5B42EEF02F0B7
:1004580030EF02F029EF02F073EF02F0C586C7A073
:1004680038EF02F03AEF02F033EF02F0C9CF1AF09A
:10047800C59AC588C5B843EF02F045EF02F03EEFD4
:1004880002F0C586C7A04BEF02F04DEF02F046EF31
:1004980002F0C9CF1BF0C59AC588C5B856EF02F05F
:1004A80058EF02F051EF02F0C586C7A05EEF02F0E8
:1004B80060EF02F059EF02F0C9CF1CF0C58AC58879
:1004C800C5B869EF02F06BEF02F064EF02F0C58483
:1004D800C5B471EF02F073EF02F06CEF02F0120096
:1004E800C580C5B07AEF02F07CEF02F075EF02F03C
:1004F8009E96D00EC96E9EA684EF02F086EF02F09B
:100508007FEF02F09E96C5AC8CEF02F08EEF02F002
:1005180098EF02F0C584C5B494EF02F096EF02F0AC
:100528008FEF02F018EF03F0000EC96E9EA69FEF42
:1005380002F0A1EF02F09AEF02F09E96C5ACA7EF89
:1005480002F0A9EF02F0B3EF02F0C584C5B4AFEF33
:1005580002F0B1EF02F0AAEF02F018EF03F0C58243
:10056800C5B2B9EF02F0BBEF02F0B4EF02F09E960D
:10057800D10EC96E9EA6C3EF02F0C5EF02F0BEEF22
:1005880002F09E96C5ACCBEF02F0CDEF02F0D7EFAC
:1005980002F0C584C5B4D3EF02F0D5EF02F0CEEF78
:1005A80002F018EF03F0C586C7A0DDEF02F0DFEF19
:1005B80002F0D8EF02F0C9CF1AF0C59AC588C5B8BD
:1005C800E8EF02F0EAEF02F0E3EF02F0C586C7A019
:1005D800F0EF02F0F2EF02F0EBEF02F0C9CF1BF000
:1005E800C59AC588C5B8FBEF02F0FDEF02F0F6EF3B
:1005F80002F0C586C7A003EF03F005EF03F0FEEF96
:1006080002F0C9CF1CF0C58AC588C5B80EEF03F043
:1006180010EF03F009EF03F0C584C5B416EF03F03B
:1006280018EF03F011EF03F01200F0A81EEF03F02B
:1006380020EF03F0BBEF03F0F0A225EF03F027EF64
:1006480003F0BBEF03F002EC09F085EF03F01B0E9B
:10065800216E000E226EA8EC07F0000E1D6E000E33
:1006680070EC05F01BC01DF0010E70EC05F0BAEF40
:1006780003F01C0E216E000E226E85EC07F0000EB2
:100688001D6E000E70EC05F01CC01DF0020E70EC23
:1006980005F0BAEF03F010EC06F0040E106EBAEF96
:1006A80003F0320E216E000E226EA8EC07F0BAEFAE
:1006B80003F0330E216E000E226E85EC07F0BAEFC0
:1006C80003F0170E216E000E226EA8EC07F0BAEFA9
:1006D80003F0180E216E000E226EA8EC07F0BAEF98
:1006E80003F0140E216E000E226EA8EC07F0BAEF8C
:1006F80003F0150E216E000E226EA8EC07F0BAEF7B
:1007080003F01050236E246A2450000AD8B48FEFE7
:1007180003F0BAEF03F02350010AD8B42BEF03F02B
:10072800030AD8B43DEF03F0010AD8B44FEF03F041
:10073800070AD8B4BAEF03F0010AD8B455EF03F0AA
:10074800030AD8B45DEF03F0010AD8B465EF03F0EB
:100758000F0AD8B46DEF03F0010AD8B475EF03F0AF
:10076800030AD8B47DEF03F0BAEF03F0F092120059
:10077800F0A6C1EF03F0C3EF03F05EEF04F0F0A0C2
:10078800C8EF03F0CAEF03F05EEF04F002EC09F0E3
:1007980028EF04F01B0E216E000E226E61EC07F0AC
:1007A800000E1D6E000E70EC05F01BC01DF0010E52
:1007B80070EC05F05DEF04F01C0E216E000E226E49
:1007C8003DEC07F0000E1D6E000E70EC05F01CC02D
:1007D8001DF0020E70EC05F05DEF04F010EC06F071
:1007E800040E106E5DEF04F0320E216E000E226EC4
:1007F80061EC07F05DEF04F0330E216E000E226EFF
:100808003DEC07F05DEF04F0170E216E000E226E2E
:1008180061EC07F05DEF04F0180E216E000E226EF9
:1008280061EC07F05DEF04F0140E216E000E226EED
:1008380061EC07F05DEF04F0150E216E000E226EDC
:1008480061EC07F05DEF04F01050246E256A255026
:10085800000AD8B432EF04F05DEF04F02450010A26
:10086800D8B4CEEF03F0030AD8B4E0EF03F0010ADE
:10087800D8B4F2EF03F0070AD8B45DEF04F0010A28
:10088800D8B4F8EF03F0030AD8B400EF04F0010A73
:10089800D8B408EF04F00F0AD8B410EF04F0010A36
:1008A800D8B418EF04F0030AD8B420EF04F05DEFD1
:1008B80004F0F09012002D6E2D380F0B0F0B296EDF
:1008C8002D500F0B2A6E28380F0B0F0B2B6E28504C
:1008D8000F0B2C6E1350D8B474EF04F076EF04F0BD
:1008E80085EF04F01150D8B47CEF04F07EEF04F0EB
:1008F80085EF04F08950A00E00D0E82EFDD78DEFCB
:1009080004F029C089FF8A88A00E00D0E82EFDD700
:100918008A981350D8B493EF04F095EF04F0A4EF3D
:1009280004F01150D8B49BEF04F09DEF04F0A4EF4D
:1009380004F08950A00E00D0E82EFDD7ACEF04F0EB
:100948002AC089FF8A8AA00E00D0E82EFDD78A9A8D
:100958001250D8B4B2EF04F0B4EF04F0C3EF04F0CF
:100968001150D8B4BAEF04F0BCEF04F0C3EF04F0B0
:100978008950A00E00D0E82EFDD7CBEF04F02BC095
:1009880089FF8A8CA00E00D0E82EFDD78A9C1250D1
:10099800D8B4D1EF04F0D3EF04F0E2EF04F0115033
:1009A800D8B4D9EF04F0DBEF04F0E2EF04F089509B
:1009B800A00E00D0E82EFDD7EAEF04F02CC089FF86
:1009C8008A8EA00E00D0E82EFDD78A9E1200F2A8CB
:1009D800F0EF04F0F2EF04F06FEF05F0F2A2F7EF9A
:1009E80004F0F9EF04F06FEF05F002EC09F039EFCD
:1009F80005F0020E106E0DEC09F06EEF05F0040E16
:100A0800106E10EC06F010EC09F06EEF05F010EC2B
:100A180006F0040E106E6EEF05F00DEC09F0050EF1
:100A2800106E6EEF05F00DEC09F0060E106E6EEF0D
:100A380005F00DEC09F0070E106E6EEF05F00DECE9
:100A480009F0080E106E6EEF05F00DEC09F0090EB6
:100A5800106E6EEF05F00DEC09F00A0E106E6EEFD9
:100A680005F010EC09F00BEF05F01050226E236A28
:100A78002350000AD8B443EF05F06EEF05F022507A
:100A8800010AD8B4FDEF04F0030AD8B403EF05F067
:100A9800010AD8B40BEF05F0070AD8B411EF05F036
:100AA800010AD8B417EF05F0030AD8B41DEF05F012
:100AB800010AD8B423EF05F00F0AD8B429EF05F0DE
:100AC800010AD8B42FEF05F0030AD8B435EF05F0C2
:100AD8006EEF05F0F29212001E6EC580C5B077EF7A
:100AE80005F079EF05F072EF05F09E96D00EC96E0D
:100AF8009EA681EF05F083EF05F07CEF05F09E964A
:100B0800C5AC89EF05F08BEF05F095EF05F0C584CE
:100B1800C5B491EF05F093EF05F08CEF05F0C2EF47
:100B280005F01EC0C9FF9EA69CEF05F09EEF05F0DC
:100B380097EF05F09E96C5ACA4EF05F0A6EF05F07B
:100B4800B0EF05F0C584C5B4ACEF05F0AEEF05F025
:100B5800A7EF05F0C2EF05F01DC0C9FF9EA6B7EFCD
:100B680005F0B9EF05F0B2EF05F09E96C584C5B45F
:100B7800C0EF05F0C2EF05F0BBEF05F01200CFECB7
:100B880001F0020E286E1B506EEC08F02C6E590E08
:100B98002C64D1EF05F0D3EF05F005EF06F0010E58
:100BA800286E1B506EEC08F02C6E230E2C64DFEFC1
:100BB80005F0E1EF05F0F1EF05F0000E036E020E0F
:100BC800286E1B506EEC08F0026E600E286E1B50EB
:100BD80058EC08F0026E0DEF06F0010E286E1C505E
:100BE8006EEC08F0036E020E286E1B506EEC08F0D7
:100BF800026E600E286E1B5058EC08F0026E0DEF66
:100C080006F01CC003F0020E286E1B506EEC08F0B4
:100C1800026E010E0F6E120074EC02F0020E1D6ED1
:100C28001B509AEC08F0216E590E21641EEF06F055
:100C380020EF06F052EF06F0010E1D6E1B509AECE5
:100C480008F0216E230E21642CEF06F02EEF06F03B
:100C58003EEF06F0000E036E020E1D6E1B509AEC5E
:100C680008F0026E600E1D6E1B5084EC08F0026ED8
:100C78005AEF06F0010E1D6E1C509AEC08F0036E38
:100C8800020E1D6E1B509AEC08F0026E600E1D6E6F
:100C98001B5084EC08F0026E5AEF06F01CC003F0FB
:100CA800020E1D6E1B509AEC08F0026E010E0F6EBC
:100CB8001200F2AA62EF06F064EF06F0A3EF06F066
:100CC800F2A469EF06F06BEF06F0A3EF06F091EFE0
:100CD80006F074EC02F033501C18D8A476EF06F036
:100CE80078EF06F087EF06F032501B18D8A47FEF94
:100CF80006F081EF06F087EF06F0010E0E6E040E87
:100D0800106EA2EF06F0000E0E6E000E0D6EA2EF32
:100D180006F0010E0F6EA2EF06F010501D6E1E6A4F
:100D28001E50000AD8B49BEF06F08DEF06F01D5058
:100D3800030AD8B46DEF06F08DEF06F0F2941200B6
:100D48003050D8B4AAEF06F0ACEF06F0E3EF06F0A7
:100D5800040E09EC08F0820E2A6EDE0EE82EFED78D
:100D68002A2EFCD7280E09EC08F0820E2A6EDE0E19
:100D7800E82EFED72A2EFCD7500E09EC08F0820E7A
:100D88002A6EDE0EE82EFED72A2EFCD7780E09EC46
:100D980008F0820E2A6EDE0EE82EFED72A2EFCD729
:100DA800A00E09EC08F0820E2A6EDE0EE82EFED7A1
:100DB8002A2EFCD7C80E09EC08F0000E306E12007F
:100DC8002A6EF9EF06F0000E136E000E126E12EF87
:100DD80007F0000E136E010E126E12EF07F0010EEF
:100DE800136E000E126E12EF07F02A50286E296A51
:100DF8002950000AD8B403EF07F012EF07F0285083
:100E0800000AD8B4E7EF06F0010AD8B4EDEF06F00F
:100E1800030AD8B4F3EF06F012EF07F012009DA012
:100E280018EF07F01AEF07F03CEF07F09EA01FEF4E
:100E380007F021EF07F03CEF07F02AEF07F0010E6B
:100E4800106E3BEF07F0111E3BEF07F010501D6EC0
:100E58001E6A1E50000AD8B434EF07F027EF07F0D7
:100E68001D50000AD8B423EF07F027EF07F09E9033
:100E7800120021C0D9FF22C0DAFF230EDE18D8A441
:100E880048EF07F04AEF07F052EF07F021C0D9FF0B
:100E980022C0DAFF000EDF6E60EF07F0010E1D6E54
:100EA80021C0D9FF22C0DAFFDF509AEC08F021C038
:100EB800D9FF22C0DAFFDF6E120021C0D9FF22C09D
:100EC800DAFF590EDE18D8A46CEF07F06EEF07F0C2
:100ED80076EF07F021C0D9FF22C0DAFF000EDF6EDF
:100EE80084EF07F0010E1D6E21C0D9FF22C0DAFF82
:100EF800DF509AEC08F021C0D9FF22C0DAFFDF6E7C
:100F0800120021C0D9FF22C0DAFFDF50D8A48FEF2A
:100F180007F091EF07F099EF07F021C0D9FF22C041
:100F2800DAFF230EDF6EA7EF07F0010E1D6E21C05A
:100F3800D9FF22C0DAFFDF5084EC08F021C0D9FFC6
:100F480022C0DAFFDF6E120021C0D9FF22C0DAFF0B
:100F5800DF50D8A4B2EF07F0B4EF07F0BCEF07F00A
:100F680021C0D9FF22C0DAFF590EDF6ECAEF07F0A1
:100F7800010E1D6E21C0D9FF22C0DAFFDF5084ECBC
:100F880008F021C0D9FF22C0DAFFDF6E1200A0A24C
:100F9800D0EF07F0D2EF07F0EBEF07F0A1A2D7EF01
:100FA80007F0D9EF07F0EBEF07F00950D8B4DFEFFF
:100FB80007F0E1EF07F0E7EF07F08290A092000E4C
:100FC800096EEAEF07F08280010E096EA192120005
:100FD800260EF66E120EF76E000EF86E00EE30F06A
:100FE80010EE04F00900F5CFEEFFE550E150FAE10C
:100FF80000EE01F01C0EEE6AE806FDE13490349232
:10100800000EF86E000109EF00F0296E29C028F0E3
:10101800010E2816283ABD502818EF0B2818BD6E67
:1010280029C028F0D8902832010E2816283A2846D8
:10103800BD502818DF0B2818BD6E2940E8423F0B29
:10104800BE6E1200286E28B002D0A09201D0A082F5
:1010580028B002D09D9001D09D8028B002D0F2988F
:1010680001D0F28828B002D0F09601D0F08628B0DE
:1010780002D0F09801D0F08812000600D9CF26F0EF
:10108800DACF27F05DEC06F013EC07F0CBEC07F0B5
:10109800EBEC04F0BCEC03F019EC03F027C0DAFF2A
:1010A80026C0D9FF349211002A6E28502A5C2B6E74
:1010B8002BC029F00F0E2916090E296466EF08F0D7
:1010C80068EF08F06CEF08F02B50FA0F6DEF08F09E
:1010D8002B5012002A6E2A5028242B6E2BC029F080
:1010E8000F0E2916090E29647CEF08F07EEF08F030
:1010F80082EF08F02B50060F83EF08F02B501200F8
:101108001F6E1D501F5C206E20C01EF00F0E1E1695
:10111800090E1E6492EF08F094EF08F098EF08F0BB
:101128002050FA0F99EF08F0205012001F6E1F5040
:101138001D24206E20C01EF00F0E1E16090E1E6400
:10114800A8EF08F0AAEF08F0AEEF08F02050060F5D
:10115800AFEF08F020501200310ECB6E000EBD6EBE
:10116800190EBE6E9494010ECA6ECA840C0EBD6E22
:1011780000F0000EBE6E1200000E946E180E94124F
:10118800000E926E070E936E9490828094948284DF
:10119800949A829A1200E20ED312C0EC08F008EC7E
:1011A80009F0EFEC08F0DCEC08F0B0EC08F0120005
:1011B800F00EF26E020EA06E010E9D6E0F0EF1166D
:1011C800180EF06E12000D0E286EFC0EE82EFED7DB
:1011D800282EFCD71200830ED56EB10ECD6E910E5F
:1011E800B16E1200000E09EC08F0010E306E12000C
:1011F800A082000EB36E000EB26E1200A082000E26
:10120800B36E000EB26E1200090EC86E280EC66EBE
:101218001200D59ECD801200D58ECD90120001000F
:021228000012B2
:020000040020DA
:08000000FFFFFFFFFFFFFFFF00
:020000040030CA
:0E000000FF08191EFF8180FF0FC00FE00F40A8
:00000001FF
