:020000040000FA
:0400000007EF00F016
:1000080034822AED08F0F0EF07F0B8EC08F0D0ECF5
:1000180008F0C80E00D0E82EFDD78EEF01F0880E4C
:10002800286E880E63EC04F0E5EC08F00DEF00F0A4
:100038001BC028F01C5063EC04F0010EE8EC06F03D
:100048000DEF00F01BC028F01C5063EC04F0020E0A
:10005800E8EC06F00DEF00F003000DEF00F00F5094
:10006800D8B439EF00F03BEF00F059EF00F0D3ECD3
:1000780001F033501C18D8A444EF00F046EF00F00C
:1000880053EF00F032501B18D8A44DEF00F04FEF9B
:1000980000F053EF00F0010E0E6E57EF00F0000E67
:1000A8000E6E000E0D6E000E0F6E1BC028F01C5059
:1000B80063EC04F0000EE8EC06F00E04D8A467EF39
:1000C80000F069EF00F075EF00F00D50D8A46FEF65
:1000D80000F071EF00F075EF00F00B0E106E0DEFF1
:1000E80000F01C500318D8A47CEF00F07EEF00F05D
:1000F800CFEF01F01B500218D8A485EF00F087EF6E
:1001080000F0CFEF01F0030E106E0DEF00F032C0DB
:1001180028F0335063EC04F0010EE8EC06F00DEF24
:1001280000F032C028F0335063EC04F0020EE8EC23
:1001380006F00DEF00F017C028F0185063EC04F03B
:10014800010EE8EC06F00DEF00F017C028F018508B
:1001580063EC04F0020EE8EC06F00DEF00F014C0BA
:1001680028F0155063EC04F0010EE8EC06F00DEFF2
:1001780000F014C028F0155063EC04F0020EE8EC0F
:1001880006F00DEF00F00F50D8B4CDEF00F0CFEF30
:1001980000F0FCEF00F0D3EC01F008501A18D8B4C6
:1001A800D8EF00F0DAEF00F0FAEF00F0010E286E59
:1001B800065057EC08F02E6E590E2E64E6EF00F04C
:1001C800E8EF00F0F2EF00F0010E286E075057EC50
:1001D80008F0076E000E066EF8EF00F0010E286EAC
:1001E800065057EC08F0066E1AC008F0000E0F6EA5
:1001F800A0929D90F298F096F0988290A8EC06F064
:10020800000EE8EC06F006C028F0075063EC04F096
:1002180018500718D8A413EF01F015EF01F00DEFEF
:1002280000F017500618D8A41CEF01F01EEF01F0DB
:100238000DEF00F0DFEC08F0000E066E000E076E02
:10024800000E086E0C0E106E0DEF00F00F50D8B4B3
:1002580030EF01F032EF01F05FEF01F0D3EC01F085
:1002680008501A18D8B43BEF01F03DEF01F05DEFEC
:1002780001F0010E286E045057EC08F02E6E590E4E
:100288002E6449EF01F04BEF01F055EF01F0010E3C
:10029800286E055057EC08F0056E000E046E5BEFF3
:1002A80001F0010E286E045057EC08F0046E1AC0D5
:1002B80008F0000E0F6E8290828A04C028F0055064
:1002C80063EC04F015500518D8A46DEF01F06FEF3A
:1002D80001F00DEF00F014500418D8A476EF01F0E7
:1002E80078EF01F00DEF00F0829AA0829D80F288ED
:1002F800F086F088000E0E6E010E0D6EC7EC05F04C
:10030800000E046E000E056E000E086E040E106ED0
:100318000DEF00F010502E6E2F6A2F50000AD8B43F
:1003280098EF01F00DEF00F02E50000AD8B413EF4B
:1003380000F0010AD8B41CEF00F0030AD8B426EF85
:1003480000F0010AD8B430EF00F0070AD8B433EF50
:1003580000F0010AD8B48BEF00F0030AD8B495EF87
:1003680000F0010AD8B49FEF00F00F0AD8B4A9EF43
:1003780000F0010AD8B4B3EF00F0030AD8B4BDEF17
:1003880000F0010AD8B4C7EF00F0070AD8B42AEF82
:1003980001F00DEF00F00DEF00F007EF00F0C58061
:1003A800C5B0D9EF01F0DBEF01F0D4EF01F09E9674
:1003B800D00EC96E9EA6E3EF01F0E5EF01F0DEEF87
:1003C80001F09E96C5ACEBEF01F0EDEF01F0F7EF11
:1003D80001F0C584C5B4F3EF01F0F5EF01F0EEEFDD
:1003E80001F077EF02F0000EC96E9EA6FEEF01F055
:1003F80000EF02F0F9EF01F09E96C5AC06EF02F0AF
:1004080008EF02F012EF02F0C584C5B40EEF02F057
:1004180010EF02F009EF02F077EF02F0C582C5B2E3
:1004280018EF02F01AEF02F013EF02F09E96D10EC9
:10043800C96E9EA622EF02F024EF02F01DEF02F033
:100448009E96C5AC2AEF02F02CEF02F036EF02F0D0
:10045800C584C5B432EF02F034EF02F02DEF02F09C
:1004680077EF02F0C586C7A03CEF02F03EEF02F03E
:1004780037EF02F0C9CF1AF0C59AC588C5B847EF5B
:1004880002F049EF02F042EF02F0C586C7A04FEF35
:1004980002F051EF02F04AEF02F0C9CF1BF0C59A03
:1004A800C588C5B85AEF02F05CEF02F055EF02F0CC
:1004B800C586C7A062EF02F064EF02F05DEF02F0BC
:1004C800C9CF1CF0C58AC588C5B86DEF02F06FEFBB
:1004D80002F068EF02F0C584C5B475EF02F077EF5B
:1004E80002F070EF02F01200C580C5B07EEF02F096
:1004F80080EF02F079EF02F09E96D00EC96E9EA6AC
:1005080088EF02F08AEF02F083EF02F09E96C5AC06
:1005180090EF02F092EF02F09CEF02F0C584C5B4B0
:1005280098EF02F09AEF02F093EF02F01CEF03F05D
:10053800000EC96E9EA6A3EF02F0A5EF02F09EEF93
:1005480002F09E96C5ACABEF02F0ADEF02F0B7EF4C
:1005580002F0C584C5B4B3EF02F0B5EF02F0AEEF18
:1005680002F01CEF03F0C582C5B2BDEF02F0BFEF89
:1005780002F0B8EF02F09E96D10EC96E9EA6C7EFA4
:1005880002F0C9EF02F0C2EF02F09E96C5ACCFEFC1
:1005980002F0D1EF02F0DBEF02F0C584C5B4D7EF6B
:1005A80002F0D9EF02F0D2EF02F01CEF03F0C5869B
:1005B800C7A0E1EF02F0E3EF02F0DCEF02F0C9CFF1
:1005C8001AF0C59AC588C5B8ECEF02F0EEEF02F054
:1005D800E7EF02F0C586C7A0F4EF02F0F6EF02F0ED
:1005E800EFEF02F0C9CF1BF0C59AC588C5B8FFEF79
:1005F80002F001EF03F0FAEF02F0C586C7A007EF9B
:1006080003F009EF03F002EF03F0C9CF1CF0C58A2D
:10061800C588C5B812EF03F014EF03F00DEF03F02F
:10062800C584C5B41AEF03F01CEF03F015EF03F00F
:100638001200F0A822EF03F024EF03F0BFEF03F05D
:10064800F0A229EF03F02BEF03F0BFEF03F0EBEC80
:1006580008F089EF03F01B0E216E000E226EACEC41
:1006680007F0000E1D6E000E74EC05F01BC01DF0A7
:10067800010E74EC05F0BEEF03F01C0E216E000EA7
:10068800226E89EC07F0000E1D6E000E74EC05F06A
:100698001CC01DF0020E74EC05F0BEEF03F014EC64
:1006A80006F0040E106EBEEF03F0320E216E000E3F
:1006B800226EACEC07F0BEEF03F0330E216E000E95
:1006C800226E89EC07F0BEEF03F0170E216E000EC4
:1006D800226EACEC07F0BEEF03F0180E216E000E90
:1006E800226EACEC07F0BEEF03F0140E216E000E84
:1006F800226EACEC07F0BEEF03F0150E216E000E73
:10070800226EACEC07F0BEEF03F01050236E246AA3
:100718002450000AD8B493EF03F0BEEF03F023503F
:10072800010AD8B42FEF03F0030AD8B441EF03F05D
:10073800010AD8B453EF03F0070AD8B4BEEF03F0A8
:10074800010AD8B459EF03F0030AD8B461EF03F0F3
:10075800010AD8B469EF03F00F0AD8B471EF03F0B7
:10076800010AD8B479EF03F0030AD8B481EF03F093
:10077800BEEF03F0F0921200F0A6C5EF03F0C7EF4A
:1007880003F062EF04F0F0A0CCEF03F0CEEF03F03B
:1007980062EF04F0EBEC08F02CEF04F01B0E216E76
:1007A800000E226E65EC07F0000E1D6E000E74EC54
:1007B80005F01BC01DF0010E74EC05F061EF04F0AC
:1007C8001C0E216E000E226E41EC07F0000E1D6E0D
:1007D800000E74EC05F01CC01DF0020E74EC05F060
:1007E80061EF04F014EC06F0040E106E61EF04F0F3
:1007F800320E216E000E226E65EC07F061EF04F0F8
:10080800330E216E000E226E41EC07F061EF04F00A
:10081800170E216E000E226E65EC07F061EF04F0F2
:10082800180E216E000E226E65EC07F061EF04F0E1
:10083800140E216E000E226E65EC07F061EF04F0D5
:10084800150E216E000E226E65EC07F061EF04F0C4
:100858001050246E256A2550000AD8B436EF04F0EB
:1008680061EF04F02450010AD8B4D2EF03F0030A70
:10087800D8B4E4EF03F0010AD8B4F6EF03F0070A9E
:10088800D8B461EF04F0010AD8B4FCEF03F0030A0E
:10089800D8B404EF04F0010AD8B40CEF04F00F0A3E
:1008A800D8B414EF04F0010AD8B41CEF04F0030A1A
:1008B800D8B424EF04F061EF04F0F09012002D6E2C
:1008C8002D380F0B0F0B296E2D500F0B2A6E283861
:1008D8000F0B0F0B2B6E28500F0B2C6E1350D8B428
:1008E80078EF04F07AEF04F089EF04F01150D8B4EF
:1008F80080EF04F082EF04F089EF04F08950A00E35
:1009080000D0E82EFDD791EF04F029C089FF8A882E
:10091800A00E00D0E82EFDD78A981350D8B497EFD0
:1009280004F099EF04F0A8EF04F01150D8B49FEF49
:1009380004F0A1EF04F0A8EF04F08950A00E00D055
:10094800E82EFDD7B0EF04F02AC089FF8A8AA00EEE
:1009580000D0E82EFDD78A9A1250D8B4B6EF04F02A
:10096800B8EF04F0C7EF04F01150D8B4BEEF04F0AC
:10097800C0EF04F0C7EF04F08950A00E00D0E82EB5
:10098800FDD7CFEF04F02BC089FF8A8CA00E00D0D2
:10099800E82EFDD78A9C1250D8B4D5EF04F0D7EFD3
:1009A80004F0E6EF04F01150D8B4DDEF04F0DFEF07
:1009B80004F0E6EF04F08950A00E00D0E82EFDD731
:1009C800EEEF04F02CC089FF8A8EA00E00D0E82E2E
:1009D800FDD78A9E1200F2A8F4EF04F0F6EF04F0B7
:1009E80073EF05F0F2A2FBEF04F0FDEF04F073EFF4
:1009F80005F0EBEC08F03DEF05F0020E106EF6EC9A
:100A080008F072EF05F0040E106E14EC06F0F9EC25
:100A180008F072EF05F014EC06F0040E106E72EF99
:100A280005F0F6EC08F0050E106E72EF05F0F6EC26
:100A380008F0060E106E72EF05F0F6EC08F0070EDF
:100A4800106E72EF05F0F6EC08F0080E106E72EFFB
:100A580005F0F6EC08F0090E106E72EF05F0F6ECF2
:100A680008F00A0E106E72EF05F0F9EC08F00FEFBF
:100A780005F01050226E236A2350000AD8B447EFBD
:100A880005F072EF05F02250010AD8B401EF05F025
:100A9800030AD8B407EF05F0010AD8B40FEF05F040
:100AA800070AD8B415EF05F0010AD8B41BEF05F012
:100AB800030AD8B421EF05F0010AD8B427EF05F0EE
:100AC8000F0AD8B42DEF05F0010AD8B433EF05F0BA
:100AD800030AD8B439EF05F072EF05F0F29212006C
:100AE8001E6EC580C5B07BEF05F07DEF05F076EF93
:100AF80005F09E96D00EC96E9EA685EF05F087EF8D
:100B080005F080EF05F09E96C5AC8DEF05F08FEFF0
:100B180005F099EF05F0C584C5B495EF05F097EF9A
:100B280005F090EF05F0C6EF05F01EC0C9FF9EA6C0
:100B3800A0EF05F0A2EF05F09BEF05F09E96C5AC7F
:100B4800A8EF05F0AAEF05F0B4EF05F0C584C5B429
:100B5800B0EF05F0B2EF05F0ABEF05F0C6EF05F02A
:100B68001DC0C9FF9EA6BBEF05F0BDEF05F0B6EFAF
:100B780005F09E96C584C5B4C4EF05F0C6EF05F030
:100B8800BFEF05F01200D3EC01F0020E286E1B50E7
:100B980057EC08F02C6E590E2C64D5EF05F0D7EF02
:100BA80005F009EF06F0010E286E1B5057EC08F00F
:100BB8002C6E230E2C64E3EF05F0E5EF05F0F5EF5E
:100BC80005F0000E036E020E286E1B5057EC08F05D
:100BD800026E600E286E1B5041EC08F0026E11EF99
:100BE80006F0010E286E1C5057EC08F0036E020E3A
:100BF800286E1B5057EC08F0026E600E286E1B50D2
:100C080041EC08F0026E11EF06F01CC003F0020E72
:100C1800286E1B5057EC08F0026E010E0F6E120082
:100C280078EC02F0020E1D6E1B5083EC08F0216E6A
:100C3800590E216422EF06F024EF06F056EF06F075
:100C4800010E1D6E1B5083EC08F0216E230E2164EB
:100C580030EF06F032EF06F042EF06F0000E036EBA
:100C6800020E1D6E1B5083EC08F0026E600E1D6EA6
:100C78001B506DEC08F0026E5EEF06F0010E1D6E63
:100C88001C5083EC08F0036E020E1D6E1B5083ECA3
:100C980008F0026E600E1D6E1B506DEC08F0026EBF
:100CA8005EEF06F01CC003F0020E1D6E1B5083ECB5
:100CB80008F0026E010E0F6E1200F2AA66EF06F03F
:100CC80068EF06F0A7EF06F0F2A46DEF06F06FEFFD
:100CD80006F0A7EF06F095EF06F078EC02F0335037
:100CE8001C18D8A47AEF06F07CEF06F08BEF06F01C
:100CF80032501B18D8A483EF06F085EF06F08BEF6F
:100D080006F0010E0E6E040E106EA6EF06F0000E31
:100D18000E6E000E0D6EA6EF06F0010E0F6EA6EF1A
:100D280006F010501D6E1E6A1E50000AD8B49FEFC0
:100D380006F091EF06F01D50030AD8B471EF06F0E3
:100D480091EF06F0F29412003050D8B4AEEF06F0EE
:100D5800B0EF06F0E7EF06F0040E0DEC08F0820E97
:100D68002A6EDE0EE82EFED72A2EFCD7280E0DECB2
:100D780008F0820E2A6EDE0EE82EFED72A2EFCD749
:100D8800500E0DEC08F0820E2A6EDE0EE82EFED70D
:100D98002A2EFCD7780E0DEC08F0820E2A6EDE0E95
:100DA800E82EFED72A2EFCD7A00E0DEC08F0820EF6
:100DB8002A6EDE0EE82EFED72A2EFCD7C80E0DECC2
:100DC80008F0000E306E12002A6EFDEF06F0000EDD
:100DD800136E000E126E16EF07F0000E136E010E62
:100DE800126E16EF07F0010E136E000E126E16EF5C
:100DF80007F02A50286E296A2950000AD8B407EF4C
:100E080007F016EF07F02850000AD8B4EBEF06F009
:100E1800010AD8B4F1EF06F0030AD8B4F7EF06F0E8
:100E280016EF07F012009DA01CEF07F01EEF07F069
:100E380040EF07F09EA023EF07F025EF07F040EF03
:100E480007F02EEF07F0010E106E3FEF07F0111EAE
:100E58003FEF07F010501D6E1E6A1E50000AD8B4EE
:100E680038EF07F02BEF07F01D50000AD8B427EF32
:100E780007F02BEF07F09E90120021C0D9FF22C087
:100E8800DAFF230EDE18D8A44CEF07F04EEF07F078
:100E980056EF07F021C0D9FF22C0DAFF000EDF6E3F
:100EA80064EF07F0010E1D6E21C0D9FF22C0DAFFE2
:100EB800DF5083EC08F021C0D9FF22C0DAFFDF6ED3
:100EC800120021C0D9FF22C0DAFF590EDE18D8A4BB
:100ED80070EF07F072EF07F07AEF07F021C0D9FF43
:100EE80022C0DAFF000EDF6E88EF07F0010E1D6EDC
:100EF80021C0D9FF22C0DAFFDF5083EC08F021C0FF
:100F0800D9FF22C0DAFFDF6E120021C0D9FF22C04C
:100F1800DAFFDF50D8A493EF07F095EF07F09DEFC5
:100F280007F021C0D9FF22C0DAFF230EDF6EABEF36
:100F380007F0010E1D6E21C0D9FF22C0DAFFDF5075
:100F48006DEC08F021C0D9FF22C0DAFFDF6E120075
:100F580021C0D9FF22C0DAFFDF50D8A4B6EF07F0CE
:100F6800B8EF07F0C0EF07F021C0D9FF22C0DAFFC1
:100F7800590EDF6ECEEF07F0010E1D6E21C0D9FFAE
:100F880022C0DAFFDF506DEC08F021C0D9FF22C083
:100F9800DAFFDF6E1200A0A2D4EF07F0D6EF07F059
:100FA800EFEF07F0A1A2DBEF07F0DDEF07F0EFEFBF
:100FB80007F00950D8B4E3EF07F0E5EF07F0EBEFDF
:100FC80007F08290A092000E096EEEEF07F0828083
:100FD800010E096EA1921200F80EF66E110EF76E50
:100FE800000EF86E00EE30F010EE04F00900F5CFB8
:100FF800EEFFE550E150FAE100EE01F01C0EEE6A5A
:10100800E806FDE134903492000EF86E000109EF15
:1010180000F0296E29C028F0010E2816283ABD5084
:101028002818EF0B2818BD6E29C028F0D890283250
:10103800010E2816283A2846BD502818DF0B281814
:10104800BD6E2940E8423F0BBE6E12000600D9CFA4
:1010580026F0DACF27F061EC06F017EC07F0CFECBA
:1010680007F0EFEC04F0C0EC03F01DEC03F027C030
:10107800DAFF26C0D9FF349211002A6E28502A5C64
:101088002B6E2BC029F00F0E2916090E29644FEF7D
:1010980008F051EF08F055EF08F02B50FA0F56EF13
:1010A80008F02B5012002A6E2A5028242B6E2BC0D1
:1010B80029F00F0E2916090E296465EF08F067EF6D
:1010C80008F06BEF08F02B50060F6CEF08F02B5070
:1010D80012001F6E1D501F5C206E20C01EF00F0EE8
:1010E8001E16090E1E647BEF08F07DEF08F081EFF5
:1010F80008F02050FA0F82EF08F0205012001F6EFF
:101108001F501D24206E20C01EF00F0E1E16090E43
:101118001E6491EF08F093EF08F097EF08F0205065
:10112800060F98EF08F020501200310ECB6E000E1B
:10113800BD6E190EBE6E9494010ECA6ECA840C0E52
:10114800BD6E00F0000EBE6E1200000E946E180EFA
:101158009412000E926E070E936E9490828094946F
:101168008284949A829A1200E20ED312A9EC08F0B3
:10117800F1EC08F0D8EC08F0C5EC08F099EC08F0B0
:101188001200F00EF26E020EA06E010E9D6E0F0E92
:10119800F116180EF06E12000D0E286EFC0EE82ED9
:1011A800FED7282EFCD71200830ED56EB10ECD6E59
:1011B800910EB16E1200000E0DEC08F0010E306EAB
:1011C8001200A082000EB36E000EB26E1200A08252
:1011D800000EB36E000EB26E1200090EC86E280E15
:1011E800C66E1200D59ECD801200D58ECD9012000D
:0411F80001000012E0
:020000040020DA
:08000000FFFFFFFFFFFFFFFF00
:020000040030CA
:0E000000FF08191EFF8180FF0FC00FE00F40A8
:00000001FF
