:020000040000FA
:0400000007EF00F016
:100008002F8209ED00F0FAEF07F0060063EC07F025
:100018006EEC08F0D9EC07F0F2A815EF00F017EF36
:1000280000F094EF00F0F2A21CEF00F01EEF00F0D9
:1000380094EF00F0C3EC08F05EEF00F0010E196ECB
:10004800D59ECD8093EF00F0030E196E16EC07F0E5
:10005800D58ECD9093EF00F016EC07F0030E196ED5
:1000680093EF00F0D59ECD80040E196E93EF00F04B
:10007800D59ECD80050E196E93EF00F0D59ECD80EC
:10008800060E196E93EF00F0D59ECD80070E196EFF
:1000980093EF00F0D59ECD80080E196E93EF00F017
:1000A800D59ECD80090E196E93EF00F0D58ECD90B8
:1000B80030EF00F01950226E236A2350000AD8B49A
:1000C80068EF00F093EF00F02250000AD8B422EF56
:1000D80000F0010AD8B428EF00F0030AD8B430EFD2
:1000E80000F0010AD8B436EF00F0070AD8B43CEFA4
:1000F80000F0010AD8B442EF00F0030AD8B448EF80
:1001080000F0010AD8B44EEF00F00F0AD8B454EF4B
:1001180000F0010AD8B45AEF00F093EF00F0F29221
:10012800F0A699EF00F09BEF00F09EEF01F0F0A031
:10013800A0EF00F0A2EF00F09EEF01F0C3EC08F092
:1001480068EF01F0590E0B18D8A4ADEF00F0AFEF2F
:1001580000F0B3EF00F0000E0B6EB9EF00F0010EE7
:100168001D6E0B5058EC08F00B6E000E1D6E000E45
:1001780076EC06F00BC01DF0010E76EC06F09DEF54
:1001880001F0230E0C18D8A4CCEF00F0CEEF00F04D
:10019800D2EF00F0000E0C6ED8EF00F0010E1D6ECD
:1001A8000C5058EC08F00C6E000E1D6E000E76EC2C
:1001B80006F00CC01DF0020E76EC06F09DEF01F083
:1001C80016EC07F0030E196E9DEF01F0590E2D186D
:1001D800D8A4F1EF00F0F3EF00F0F7EF00F0000E15
:1001E8002D6E9DEF01F0010E1D6E2D5058EC08F09C
:1001F8002D6E9DEF01F0230E2E18D8A406EF01F006
:1002080008EF01F00CEF01F0000E2E6E9DEF01F0EB
:10021800010E1D6E2E5058EC08F02E6E9DEF01F069
:10022800590E0418D8A41BEF01F01DEF01F021EFBF
:1002380001F0000E046E9DEF01F0010E1D6E0450DA
:1002480058EC08F0046E9DEF01F0590E0518D8A47B
:1002580030EF01F032EF01F036EF01F0000E056EDD
:100268009DEF01F0010E1D6E055058EC08F0056E6B
:100278009DEF01F0590E0118D8A445EF01F047EFA2
:1002880001F04BEF01F0000E016E9DEF01F0010E41
:100298001D6E015058EC08F0016E9DEF01F0590EEB
:1002A8000218D8A45AEF01F05CEF01F060EF01F0FA
:1002B800000E026E9DEF01F0010E1D6E025058EC0B
:1002C80008F0026E9DEF01F01950226E236A235048
:1002D800000AD8B472EF01F09DEF01F02250000A35
:1002E800D8B4A6EF00F0010AD8B4C5EF00F0030AAD
:1002F800D8B4E4EF00F0010AD8B49DEF01F0070A82
:10030800D8B4EAEF00F0010AD8B4FFEF00F0030A0E
:10031800D8B414EF01F0010AD8B429EF01F00F0A9C
:10032800D8B43EEF01F0010AD8B453EF01F09DEFC5
:1003380001F0F090F0A8A3EF01F0A5EF01F0A0EF15
:1003480002F0F0A2AAEF01F0ACEF01F0A0EF02F08A
:10035800C3EC08F06AEF02F00B50D8A4B6EF01F036
:10036800B8EF01F0BCEF01F0590E0B6EC2EF01F0CF
:10037800010E1D6E0B5042EC08F00B6E000E1D6E48
:10038800000E76EC06F00BC01DF0010E76EC06F0C0
:100398009FEF02F00C50D8A4D4EF01F0D6EF01F093
:1003A800DAEF01F0230E0C6EE0EF01F0010E1D6E86
:1003B8000C5042EC08F00C6E000E1D6E000E76EC30
:1003C80006F00CC01DF0020E76EC06F09FEF02F06E
:1003D80016EC07F0030E196E9FEF02F02D50D8A40B
:1003E800F8EF01F0FAEF01F0FEEF01F0590E2D6E73
:1003F8009FEF02F0010E1D6E2D5042EC08F02D6E9D
:100408009FEF02F02E50D8A40CEF02F00EEF02F08E
:1004180012EF02F0230E2E6E9FEF02F0010E1D6EFA
:100428002E5042EC08F02E6E9FEF02F00450D8A434
:1004380020EF02F022EF02F026EF02F0590E046ED0
:100448009FEF02F0010E1D6E045042EC08F0046E9E
:100458009FEF02F00550D8A434EF02F036EF02F017
:100468003AEF02F0590E056E9FEF02F0010E1D6E75
:10047800055042EC08F0056E9FEF02F00150D8A439
:1004880048EF02F04AEF02F04EEF02F0590E016E0B
:100498009FEF02F0010E1D6E015042EC08F0016E54
:1004A8009FEF02F00250D8A45CEF02F05EEF02F07A
:1004B80062EF02F0590E026E9FEF02F0010E1D6E00
:1004C800025042EC08F0026E9FEF02F01950226EC3
:1004D800236A2350000AD8B474EF02F09FEF02F0A9
:1004E8002250000AD8B4B0EF01F0010AD8B4CEEF18
:1004F80001F0030AD8B4ECEF01F0010AD8B49FEF79
:1005080002F0070AD8B4F2EF01F0010AD8B406EFF6
:1005180002F0030AD8B41AEF02F0010AD8B42EEF99
:1005280002F00F0AD8B442EF02F0010AD8B456EF2D
:1005380002F09FEF02F0F0922F9211009EEC08F06B
:10054800BDEC08F0C80E00D0E82EFDD75FEF04F030
:100558000BC024F00C50EAEC05F0010EAAEC07F0F1
:10056800A6EF02F00BC024F00C50EAEC05F0020EE6
:10057800AAEC07F0A6EF02F00300A6EF02F018506D
:10058800D8B4C9EF02F0CBEF02F0E9EF02F0A0EC2B
:1005980004F02E500C18D8A4D4EF02F0D6EF02F0D5
:1005A800E3EF02F02D500B18D8A4DDEF02F0DFEFD7
:1005B80002F0E3EF02F0010E176EE7EF02F0000E13
:1005C800176E000E166E000E186E0BC024F00C503D
:1005D800EAEC05F0000EAAEC07F01704D8A4F7EF30
:1005E80002F0F9EF02F005EF03F01650D8A4FFEF80
:1005F80002F001EF03F005EF03F00A0E196EA6EF03
:1006080002F00C500918D8A40CEF03F00EEF03F019
:100618009CEF04F00B500818D8A415EF03F017EF5F
:1006280003F09CEF04F0020E196EA6EF02F02DC045
:1006380024F02E50EAEC05F0010EAAEC07F0A6EF24
:1006480002F02DC024F02E50EAEC05F0020EAAECC0
:1006580007F0A6EF02F004C024F00550EAEC05F01C
:10066800010EAAEC07F0A6EF02F004C024F0055032
:10067800EAEC05F0020EAAEC07F0A6EF02F001C0C2
:1006880024F00250EAEC05F0010EAAEC07F0A6EF00
:1006980002F001C024F00250EAEC05F0020EAAECC8
:1006A80007F0A6EF02F01850D8B45DEF03F05FEF43
:1006B80003F08CEF03F0A0EC04F011500A18D8B442
:1006C80068EF03F06AEF03F08AEF03F0010E246E7F
:1006D8000F502CEC08F02A6E590E2A6476EF03F0BE
:1006E80078EF03F082EF03F0010E246E10502CEC2B
:1006F80008F0106E000E0F6E88EF03F0010E246EE6
:100708000F502CEC08F00F6E0AC011F0000E186E96
:10071800A0929D90F298F096F09882901050D8A4EC
:1007280098EF03F09AEF03F0A8EF03F00F04D8A4B2
:10073800A0EF03F0A2EF03F0A8EF03F0BD98BD9A75
:10074800190EBE6ED3EF03F01050D8A4AEEF03F02D
:10075800B0EF03F0BFEF03F0020E0F18D8A4B7EF05
:1007680003F0B9EF03F0BFEF03F0BD98BD8A250E83
:10077800BE6ED3EF03F01050D8A4C5EF03F0C7EF57
:1007880003F0CFEF03F0020E0F64CDEF03F0CFEFCD
:1007980003F0D3EF03F0BD98BD9A320EBE6E000E83
:1007A800AAEC07F00FC024F01050EAEC05F0055051
:1007B8001018D8A4E2EF03F0E4EF03F0A6EF02F07C
:1007C80004500F18D8A4EBEF03F0EDEF03F0A6EFF9
:1007D80002F0BD98BD9A000EBE6E000E0F6E000EA0
:1007E800106E000E116E0B0E196EA6EF02F0185067
:1007F800D8B401EF04F003EF04F030EF04F0A0ECFC
:1008080004F011500A18D8B40CEF04F00EEF04F0FD
:100818002EEF04F0010E246E0D502CEC08F02A6E19
:10082800590E2A641AEF04F01CEF04F026EF04F0C6
:10083800010E246E0E502CEC08F00E6E000E0D6E9C
:100848002CEF04F0010E246E0D502CEC08F00D6E08
:100858000AC011F0000E186E8290828A0DC024F032
:100868000E50EAEC05F002500E18D8A43EEF04F042
:1008780040EF04F0A6EF02F001500D18D8A447EF9E
:1008880004F049EF04F0A6EF02F0829AA0829D805E
:10089800F288F086F088000E176E010E166EC9EC0D
:1008A80006F0000E0D6E000E0E6E000E116E030E99
:1008B800196EA6EF02F019502A6E2B6A2B50000A07
:1008C800D8B469EF04F0A6EF02F02A50000AD8B4B1
:1008D800ACEF02F0010AD8B4B6EF02F0030AD8B4BC
:1008E800C0EF02F0010AD8B4C3EF02F0070AD8B487
:1008F8001BEF03F0010AD8B425EF03F0030AD8B4BC
:100908002FEF03F0010AD8B439EF03F00F0AD8B477
:1009180043EF03F0010AD8B44DEF03F0030AD8B44B
:1009280057EF03F0010AD8B4FBEF03F0A6EF02F08B
:10093800A6EF02F007EF00F0C580C5B0A6EF04F0FF
:10094800A8EF04F0A1EF04F09E96D00EC96E9EA603
:10095800B0EF04F0B2EF04F0ABEF04F09E96C5AC34
:10096800B8EF04F0BAEF04F0C4EF04F0C584C5B4DE
:10097800C0EF04F0C2EF04F0BBEF04F044EF05F061
:10098800000EC96E9EA6CBEF04F0CDEF04F0C6EFC3
:1009980004F09E96C5ACD3EF04F0D5EF04F0DFEF7A
:1009A80004F0C584C5B4DBEF04F0DDEF04F0D6EF46
:1009B80004F044EF05F0C582C5B2E5EF04F0E7EFB7
:1009C80004F0E0EF04F09E96D10EC96E9EA6EFEFFC
:1009D80004F0F1EF04F0EAEF04F09E96C5ACF7EFEF
:1009E80004F0F9EF04F003EF05F0C584C5B4FFEF98
:1009F80004F001EF05F0FAEF04F044EF05F0C586C6
:100A0800C7A009EF05F00BEF05F004EF05F0C9CF1B
:100A18000AF0C59AC588C5B814EF05F016EF05F0B9
:100A28000FEF05F0C586C7A01CEF05F01EEF05F017
:100A380017EF05F0C9CF0BF0C59AC588C5B827EFE1
:100A480005F029EF05F022EF05F0C586C7A02FEFC6
:100A580005F031EF05F02AEF05F0C9CF0CF0C58A93
:100A6800C588C5B83AEF05F03CEF05F035EF05F05D
:100A7800C584C5B442EF05F044EF05F03DEF05F03D
:100A88001200C580C5B04BEF05F04DEF05F046EFFD
:100A980005F09E96D00EC96E9EA655EF05F057EF4D
:100AA80005F050EF05F09E96C5AC5DEF05F05FEFE1
:100AB80005F069EF05F0C584C5B465EF05F067EF8B
:100AC80005F060EF05F0E9EF05F0000EC96E9EA68F
:100AD80070EF05F072EF05F06BEF05F09E96C5AC70
:100AE80078EF05F07AEF05F084EF05F0C584C5B41A
:100AF80080EF05F082EF05F07BEF05F0E9EF05F0F8
:100B0800C582C5B28AEF05F08CEF05F085EF05F0D8
:100B18009E96D10EC96E9EA694EF05F096EF05F04D
:100B28008FEF05F09E96C5AC9CEF05F09EEF05F0A3
:100B3800A8EF05F0C584C5B4A4EF05F0A6EF05F04D
:100B48009FEF05F0E9EF05F0C586C7A0AEEF05F009
:100B5800B0EF05F0A9EF05F0C9CF0AF0C59AC5882E
:100B6800C5B8B9EF05F0BBEF05F0B4EF05F0C586E1
:100B7800C7A0C1EF05F0C3EF05F0BCEF05F0C9CF82
:100B88000BF0C59AC588C5B8CCEF05F0CEEF05F0D7
:100B9800C7EF05F0C586C7A0D4EF05F0D6EF05F07E
:100BA800CFEF05F0C9CF0CF0C58AC588C5B8DFEF0F
:100BB80005F0E1EF05F0DAEF05F0C584C5B4E7EF1D
:100BC80005F0E9EF05F0E2EF05F01200296E29388B
:100BD8000F0B0F0B256E29500F0B266E24380F0BA9
:100BE8000F0B276E24500F0B286E1C50D8B4FFEF44
:100BF80005F001EF06F010EF06F01A50D8B407EF31
:100C080006F009EF06F010EF06F08950A00E00D0AC
:100C1800E82EFDD718EF06F025C089FF8A88A00EB8
:100C280000D0E82EFDD78A981C50D8B41EEF06F0E5
:100C380020EF06F02FEF06F01A50D8B426EF06F092
:100C480028EF06F02FEF06F08950A00E00D0E82E0E
:100C5800FDD737EF06F026C089FF8A8AA00E00D09C
:100C6800E82EFDD78A9A1B50D8B43DEF06F03FEF27
:100C780006F04EEF06F01A50D8B445EF06F047EFED
:100C880006F04EEF06F08950A00E00D0E82EFDD7F2
:100C980056EF06F027C089FF8A8CA00E00D0E82EF8
:100CA800FDD78A9C1B50D8B45CEF06F05EEF06F0C7
:100CB8006DEF06F01A50D8B464EF06F066EF06F050
:100CC8006DEF06F08950A00E00D0E82EFDD775EF25
:100CD80006F028C089FF8A8EA00E00D0E82EFDD726
:100CE8008A9E12001E6EC580C5B07DEF06F07FEFAC
:100CF80006F078EF06F09E96D00EC96E9EA687EF96
:100D080006F089EF06F082EF06F09E96C5AC8FEFED
:100D180006F091EF06F09BEF06F0C584C5B497EF97
:100D280006F099EF06F092EF06F0C8EF06F01EC045
:100D3800C9FF9EA6A2EF06F0A4EF06F09DEF06F00D
:100D48009E96C5ACAAEF06F0ACEF06F0B6EF06F03B
:100D5800C584C5B4B2EF06F0B4EF06F0ADEF06F007
:100D6800C8EF06F01DC0C9FF9EA6BDEF06F0BFEF95
:100D780006F0B8EF06F09E96C584C5B4C6EF06F037
:100D8800C8EF06F0C1EF06F01200A0EC04F0020E66
:100D9800246E0B502CEC08F0286E590E2864D7EFFF
:100DA80006F0D9EF06F00BEF07F0010E246E0B509A
:100DB8002CEC08F0286E230E2864E5EF06F0E7EF28
:100DC80006F0F7EF06F0000E096E020E246E0B50C7
:100DD8002CEC08F0086E600E246E0B5016EC08F030
:100DE800086E13EF07F0010E246E0C502CEC08F07F
:100DF800096E020E246E0B502CEC08F0086E600E83
:100E0800246E0B5016EC08F0086E13EF07F00CC0B8
:100E180009F0020E246E0B502CEC08F0086E010E3F
:100E2800186E120045EC05F0020E1D6E0B5058ECC2
:100E380008F0216E590E216424EF07F026EF07F021
:100E480058EF07F0010E1D6E0B5058EC08F0216E9C
:100E5800230E216432EF07F034EF07F044EF07F078
:100E6800000E096E020E1D6E0B5058EC08F0086E4D
:100E7800600E1D6E0B5042EC08F0086E60EF07F034
:100E8800010E1D6E0C5058EC08F0096E020E1D6E16
:100E98000B5058EC08F0086E600E1D6E0B5042ECBB
:100EA80008F0086E60EF07F00CC009F0020E1D6E26
:100EB8000B5058EC08F0086E010E186E1200F2AADA
:100EC80068EF07F06AEF07F0A9EF07F0F2A46FEFF9
:100ED80007F071EF07F0A9EF07F097EF07F045EC7F
:100EE80005F02E500C18D8A47CEF07F07EEF07F021
:100EF8008DEF07F02D500B18D8A485EF07F087EF7A
:100F080007F08DEF07F0010E176E030E196EA8EFAC
:100F180007F0000E176E000E166EA8EF07F0010E10
:100F2800186EA8EF07F019501D6E1E6A1E50000AB1
:100F3800D8B4A1EF07F093EF07F01D50020AD8B418
:100F480073EF07F093EF07F0F2941200266EBFEFED
:100F580007F0000E1C6E000E1B6ED8EF07F0000E97
:100F68001C6E010E1B6ED8EF07F0010E1C6E000EF2
:100F78001B6ED8EF07F02650246E256A2550000A0C
:100F8800D8B4C9EF07F0D8EF07F02450000AD8B456
:100F9800ADEF07F0010AD8B4B3EF07F0030AD8B4ED
:100FA800B9EF07F0D8EF07F01200A0A2DEEF07F0C4
:100FB800E0EF07F0F9EF07F0A1A2E5EF07F0E7EFA0
:100FC80007F0F9EF07F01250D8B4EDEF07F0EFEFA4
:100FD80007F0F5EF07F08290A092000E126EF8EF7E
:100FE80007F08280010E126EA19212009C0EF66E1E
:100FF800110EF76E000EF86E0900F5CF2CF00900FF
:10100800F5CF2DF00900F5CF2EF000EE01F01C0E03
:10101800EE6AE806FDE12F902F92000EF86E0001AF
:10102800A2EF02F0266E2450265C276E27C025F01A
:101038000F0E2516090E256424EF08F026EF08F098
:101048002AEF08F02750FA0F2BEF08F0275012006C
:10105800266E26502424276E27C025F00F0E25164D
:10106800090E25643AEF08F03CEF08F040EF08F06D
:101078002750060F41EF08F0275012001F6E1D5031
:101088001F5C206E20C01EF00F0E1E16090E1E6477
:1010980050EF08F052EF08F056EF08F02050FA0F22
:1010A80057EF08F0205012001F6E1F501D24206EAD
:1010B80020C01EF00F0E1E16090E1E6466EF08F003
:1010C80068EF08F06CEF08F02050060F6DEF08F09D
:1010D800205012009DA073EF08F075EF08F07EEF26
:1010E80008F09EA07AEF08F07CEF08F07EEF08F099
:1010F8001A1E9E901200310ECB6E000EBD6E190E98
:10110800BE6E9494010ECA6ECA840C0EBD6E00F0B9
:10111800000EBE6E1200000E946E180E9412000E91
:10112800926E070E936E9490828094948284949A1F
:10113800829A1200E20ED3128FEC08F0C9EC08F084
:10114800B6EC08F0ABEC08F07FEC08F01200F00EFB
:10115800F26E020EA06E010E9D6E0F0EF116180EA5
:10116800F06E1200830ED56EB10ECD6E910EB16E7B
:101178001200880E246E880EEAEC05F01200A08298
:10118800000EB36E000EB26E1200090EC86E280E65
:07119800C66E1200000012F8
:020000040020DA
:08000000FFFFFFFFFFFFFFFF00
:020000040030CA
:0E000000FF08191EFF8180FF0FC00FE00F40A8
:00000001FF
